:020000040800F2
:1000000000000120150A00088D0900088F0900086A
:1000100091090008930900089509000800000000F4
:100020000000000000000000000000009709000828
:1000300099090008000000009B0900089D090008BC
:10004000650A0008650A0008650A0008650A0008D4
:10005000650A0008650A0008650A0008650A0008C4
:10006000650A0008650A0008650A0008650A0008B4
:10007000650A0008650A0008A1090008A30900082C
:10008000650A0008650A0008650A0008000000000B
:10009000000000000000000000000000650A0008E9
:1000A000650A0008A5090008650A0008650A000835
:1000B000650A0008650A0008650A0008650A000864
:1000C000650A0008650A0008650A0008650A000854
:1000D000650A0008650A0008650A000800000000BB
:1000E000650A0008650A0008650A000800000000AB
:1000F000000000000000000000000000650A000889
:1001000000000000650A0008650A0008650A00088A
:1001100000000000000000000000000000000000DF
:10012000650A0008650A0008650A0008B5090008A4
:10013000650A000800000000000000000000000048
:10014000000000000000000000000000650A000838
:10015000650A0008650A0008650A0008650A0008C3
:10016000650A0008650A00080000000000000000A1
:10017000000000000000000000000000000000007F
:1001800000000000650A00080000000000000000F8
:04019000650A0008F4
:1001940010B5054C237833B9044B13B10448AFF3BD
:1001A40000800123237010BD08010020000000001E
:1001B4007849000808B5034B1BB103490348AFF362
:1001C400008008BD000000000C01002078490008F0
:1001D400034613F8012B002AFBD1181A0138704783
:1001E400054B1A6B02431A631B6B82B003400193E5
:1001F400019B02B0704700BF0038024000F00700C6
:10020400C0F10702031D042A28BF0422062B4FF065
:10021400FF3303FA02F38CBF0338002021EA030101
:1002240001FA00F0704700002B4A136823F007031B
:1002340043F0020310B51360136803F00703022BA5
:10024400FAD1264A136823F4404343F4004313606D
:10025400234B1A6842F480321A601A689103FCD561
:100264005A6820491140204A0A435A605A6822F4C5
:1002740040325A601A6842F080721A60184B1A6849
:100284009201FCD59A68164C22F0F0029A609A68A2
:1002940022F4E05242F480529A609A6822F4604256
:1002A4009A609A6822F0030242F002029A60A368FC
:1002B40003F00C03082BFAD10C4801F0E7FC0F20E3
:1002C40001F04CFA08B172B6FEE7D4F88C3023F092
:1002D4008073C4F88C3010BD003C024000700040B4
:1002E400003802400080BFFF192A400000BD01050C
:1002F4002DE9F04FADF2047D002401F053FAFFF72D
:1003040093FF04203194FFF76BFF8020FFF768FF11
:100314000120FFF765FF0220FFF762FFDFF83C933F
:10032400DFF83CA3C548C64EDFF838B31C224FF4AF
:1003340000534FF48055012783612CA9C9F8182074
:10034400CAF818504FF00208CDE92D742C93CDE96A
:100354002F4401F0A5FA0C232CA94846CDE92C37EB
:10036400CDE92E84309401F09BFA10232CA9484641
:10037400CDE92C37CDE92E84309701F091FA2CA9E0
:100384005046CDE92C57CDE92E84309701F088FAF8
:100394004FF470732CA95046CDE92C34A94D3097F5
:1003A40001F07EFA4FF48000FFF71AFF4FF40010BB
:1003B400FFF716FFE8682146C0F30220FFF71EFF8F
:1003C40000014FF48042C0B286F80E033260E86840
:1003D4002146C0F30220FFF711FF00014FF4004251
:1003E400C0B286F80F033260E868974D2146C0F327
:1003F4000220FFF703FF0001C0B24FF0006286F84D
:100404003B03214672602CA8282204F0F6F9DBF89D
:10041400442042F48052CBF84420DBF8442002F418
:10042400805238461192119AFFF7DAFEA022CDE9E4
:1004340022280322CDE9242422A90522484626970E
:10044400279201F02DFAAA6D804822F0606242F0F2
:10045400C062AA65AA6D22F0C00242F04002AA65F9
:10046400AA6D22F44032AA65AA6D22F49072AA659C
:10047400AA6D22F40072AA65AA6D42F48062AA658C
:10048400AA6D22F4C05242F40062AA65AA6D22F455
:10049400C04242F40052AA65EA6E22F00402EA66FF
:1004A4004FF48272CDE92D244FF40072CDE931244A
:1004B4002CA90A22CDE92F843592CDE933442C941A
:1004C40001F08CFA61494A6822F010024A602CA8B3
:1004D4001422214604F091F9DBF84420594B42F4EC
:1004E4000032CBF84420DBF8442002F400321292AC
:1004F400129AD8684146C0F30220FFF77FFE00013C
:10050400C0B24FF0007240F2E73386F8190332604C
:10051400ADF8B0302CAB40F2A31219464C482D94E0
:10052400CDE92E2401F08AFA494B4A4E1A6822F08A
:1005340080021A60214628222CA804F05EF9DBF818
:10054400402042F48042CBF84020DBF8402002F403
:10055400804240461392139AFFF742FE0320CDE9EE
:1005640024040520279022A84FF4604201465046F7
:10057400CDE92228269401F093F9374A916D21F0B0
:1005840060619165916D21F0C0019165916D21F4D7
:1005940040319165916D21F490719165916D21F4D3
:1005A40000719165916D41F480619165916D21F4C3
:1005B400C0519165916D21F4C0419165D16E21F0D6
:1005C4000401D166116F21F060611167116F21F090
:1005D400C00141F040011167116F21F440311167EE
:1005E400116F21F490711167116F21F4007111677B
:1005F400116F41F480611167116F21F4C0511167CB
:10060400116F21F4C0411167D2F884104FF4827045
:1006140021F00401C2F884103022CDE92D044FF4F6
:100624000070CDE931020A2035902CA801463046ED
:10063400CDE92F44CDE933442C9415E00008024061
:1006440000E100E000ED00E0006402400030014001
:1006540000440140003800400060024000000240B5
:10066400000402400038024001F0B8F9726822F038
:100674001002726019AE14222146304604F0BDF80F
:10068400202221462CA804F0B8F81822214622A8DA
:1006940004F0B3F8DBF8402042EA0802CBF840202B
:1006A400DBF8402040F2E733ABF50D3B02EA0802E9
:1006B40031461492ADF864305846D123149A1B93F2
:1006C40001F0BCF9DBF8003023F08003CBF80030F4
:1006D4004FF080432CA8D3F8182442F00802C3F842
:1006E40018246022CDE92C246D223946CDE92F242B
:1006F400024658462E9401F0EDF94FF080433846F7
:10070400D3F8182422F00402C3F81824DBF80430C8
:1007140023F07003CBF80430DBF8083023F08003B7
:10072400CBF80830FFF75CFD22A801464FF0400BE0
:100734004846CDE922B8CDE92648CDE9244401F064
:10074400AFF801F0A9FA424650462346594602F052
:10075400BDFA504623460322802102F0B7FA5046E0
:10076400234622464FF4807102F0B0FA3A465046CE
:1007740023464FF4007102F0A9FA654ADFF8C8A1D4
:10078400D3683B43D36013683B4313609AE80F007C
:100794000DF1540C8CE80F000323CDE91B39082319
:1007A400ADF874305B49CDF878900423ADF87C3013
:1007B4004FF01003CDE91915ADF884309CE80F0013
:1007C4000DF1240ECDF880908EE80F00524B069365
:1007D400524B534DDFF87491CDE907680593514BA3
:1007E4000493514B4FF4A072CDE90243F023CDE9B9
:1007F40000322CA91A46286800F0CCF980462860FB
:1008040000F02DFB2146404600F04CFD0AF1100A91
:1008140046494748224603F007FCBAE80F0022ADD8
:100824000FC5BAE80F000FC59AE8030085E8030076
:1008340002F098F94146036C06469847B8F806203A
:10084400B8F804300092756C224621463046A84719
:10085400B36C22A930469847F36C36493046984722
:10086400356D3A46032321463046A847324F334D6F
:100874000521304602F0B6F9B36D30469847F36D62
:10088400304698470446002836D1336E30469847A0
:10089400736E0F90304698470F9A034649460220DC
:1008A40003F04DFE01220146284603F0E3FB736981
:1008B400024698B90390D96802915B680193B369C1
:1008C400009301461E4B404600F0EAFE284603F022
:1008D400F7FC02F027FA0028FBD0C9E70394DA6892
:1008E40002925B680193B3690093164B224611464A
:1008F400404600F0D5FEECE7736900220392D96804
:1009040002915B680193B36900933B46EFE700BF34
:1009140000440140003001405917000851170008F5
:10092400280100202D1700080D170008900500204D
:100934003001002004000020FF4900086403002067
:10094400D2490008EB49000890490008D049000842
:1009540082B00C4B002100915A6C42F480425A64DC
:100964005A6C02F480420092009A01911A6C42F08F
:1009740080521A641B6C03F080530193019B02B0F4
:10098400704700BF00380240FEE7FEE7FEE7FEE7DF
:10099400FEE770477047704700F01EBF704770470E
:1009A400024B6FF001021A6102F0E6B90044014003
:1009B4000148032100F068B8006402400B4A116842
:1009C40010B5034609B90A491160106809490A4C6F
:1009D4000344091B8B4206D903F03EFF0C2303603A
:1009E4004FF0FF3010BD1360FCE700BF240100206E
:1009F400600900200000012000040000034AD2F82E
:100A0400883043F47003C2F88830704700ED00E08A
:100A1400DFF834D00D480E490E4A002302E0D458C2
:100A2400C4500433C4188C42F9D30B4A0B4C002332
:100A340001E013600432A242FBD3FFF7DFFF03F0AF
:100A440011FFFFF755FC7047000001200000002053
:100A54000801002048810008080100205C090020EA
:100A6400FEE730B5838F446A856B02B91B04AB6122
:100A7400E160A3689A0703D5A3681B0602D430BDBE
:100A840000BFF6E700BFF7E737B50C463149024629
:100A9400086849686B4603C304F108036B44032CDC
:100AA40013F8080C8CBF02F10C0102F108013F237A
:100AB40083400B60284B1B68002B2ED0996A8A4216
:100AC40009D1D96A8C4206D1196C39B14969B3F894
:100AD4004400084202D0D3F84C36EDE71F49085DC4
:100AE400115821F0010111501518296811F0010164
:100AF40015D1D3F83C46A4B1B4F5803F23BF4FF6DB
:100B0400FF716960A4F57F416C6028BFFF39C3F8A9
:100B14003C16135843F00103135003B030BD00BF1B
:100B2400E3E7596A4A6822F002024A605A6A916805
:100B340009060CD493F8411621B9196C11B1B3F814
:100B440044308B61136823F040031360E5E700BF72
:100B5400ECE700BFC849000828010020124A000839
:100B6400026B10B504466AB1838E1B04936119208D
:100B740001F078F8236BA28E9A61BDE81040192029
:100B840001F070B810BD20B14FF4CA62002103F027
:100B940034BE70472DE9F84FDDF834B0BDF8287045
:100BA400BDF82C609DF83090804692461D460C4658
:100BB400002900F0B5804FF4CA620021204603F0FA
:100BC4001CFE9DF84830DDF844E084F84830BEE867
:100BD4000F0004F1240CACE80F00BEE80F00ACE8F1
:100BE4000F00DEF80030CCF80030A36A002B2AD0C6
:100BF400E26A52498A5C995821F001019950981887
:100C04000168C90763D494F84810012961D199583F
:100C140021F4F041995099589950995821F4802120
:100C240021F00E019950416921F0800141619958E8
:100C340041F010019950995821F400719950995834
:100C440041F48061995055452B4638BF534655456C
:100C540028BF554619F0FD0245D1B9F1000F62D005
:100C6400791BF21A09B212B2AF42A580E380278041
:100C740066806181A2814FD3B3424DD8BBF1000F8E
:100C84004AD00E9B002B47D0C4E905B30F9BE36108
:100C9400109B236213AB0FCB04F14C0584F808902E
:100CA40085E80F00002384F84036C4F84C36C4F8B5
:100CB400483604F16003E365B8F1000F30D0D8F88A
:100CC4004C269ABBC4F84886C8F84C4628E000BFB6
:100CD40096E70229A1D1995821F4F04199509958E5
:100CE40041F4205198E7012A16D1B9F1010F09D135
:100CF40019467A1B2B460D46314612B23E460F4624
:100D04000021B1E71A46F11A2B461546324609B2BC
:100D14003E4617460022A7E72046FFF734FF00248B
:100D24002046BDE8F88F49464A469DE794F8403688
:100D3400013384F840369046C1E700BF124A0008E8
:100D4400436A1868C0F3801070472DE9F843466A77
:100D540005460C462846FFF7F3FF012822D02A6CEB
:100D64001AB1B5F844301B049361336823F42C435F
:100D74003360336843F0400333602278012A19D08A
:100D8400022A26D05ABB61782846FFF76AFE04F18E
:100D9400030914F8028F474614F8011F27B909EB19
:100DA4000804EAE700BFD5E701222846FFF759FE09
:100DB400013FF1E704F1020914F8018F474614F8E2
:100DC400011F002FEBD001222846FFF74AFE013F06
:100DD400F5E76078A71C00F045FF3C46CDE72B6C97
:100DE40013B1B5F844209A61336823F040033360AB
:100DF400BDE8F8836429C36C0A4628BF642280F8DE
:100E04005A201BB3D96A4A436421B2FBF1F2016D43
:100E1400B1F5807F18D00ED8012911D0102911D036
:100E24001A68D20718D41A6A114319621A6842F070
:100E340001021A607047B1F5805FF1D11A64EFE7DF
:100E44005A63EDE79A63EBE7DA63E9E7426D1AB1B7
:100E5400B0F8583009B1936170471B04FBE710B533
:100E64000446FFF77DFE6369207A984701462046D1
:100E7400FFF76BFF94F85A102046BDE81040FFF7C7
:100E8400B9BFF8B50446BDF818C0A5894089A6695C
:100E9400C718AC4408441544A9B21FFA8CF3BAB27B
:100EA40080B2B04701462046BDE8F840FFF74DBF89
:100EB40038B5456A04462046FFF742FF012831D081
:100EC40094F841362BB9206C18B1B4F844301B04A3
:100ED400836194F8423613B9A36BA08F98612B6891
:100EE40023F42C432B6094F84800022802BF2B689B
:100EF40043F400632B602B68022843F040032B600B
:100F04001CD18AB9AB681B0624D494F8413623B9A2
:100F1400236C13B1B4F844209A612B6823F0400386
:100F24002B6038BD00BFC6E731F8023BEB60AB680D
:100F34009B0701D5013AE4E700BFF8E701EB420261
:100F44009142DFD011F8013BEB60AB689807F7D40E
:100F540000BFFAE700BFD5E7836A2DE9F3410446F1
:100F640088461546002B71D090F84830012B08BFF5
:100F74005500426A2046FFF7E3FE012864D094F846
:100F840041362BB9216C19B1B4F844301B048B6180
:100F940094F8423613B9A36BA18F99611368C4F80E
:100FA4003C5623F42C43136094F848302A49022B0E
:100FB40002BF136843F400631360136843F04003F3
:100FC4001360D4E90A37CE5D244908684968EE46BF
:100FD400AEE8030007F10801032F0DEB010788BFFA
:100FE40003F10C0017F8087C98BF03F108003F21B7
:100FF400B9400160516803EB060C41F002015160F5
:101004000C32CCF80820CCF80C809A5922F40072E7
:101014009A519A59B5F5803F42F480629A512ABF99
:101024004FF6FF72CCF80450CCF804209A592ABF2A
:10103400A5F57F450025FF3D42F00102C4F83C566A
:101044009A5102B0BDE8F08100BF93E702B0BDE859
:10105400F041FFF72DBF00BF124A0008C84900083D
:101064002DE9F347B0F804C0BDF82880DDF82C90D2
:101074009DF830A08C45074614461E4625D9C388E2
:10108400934222D901EB060EE6451EDC02EB080C66
:101094009C451ADC08F1FF35731E2C440B44A4B2A2
:1010A40000949BB2FFF7EDFE08FB06F24946384672
:1010B400BAF1000F04D002B0BDE8F047FFF74CBF0F
:1010C40002B0BDE8F047FFF7F3BE02B0BDE8F08719
:1010D400D20002F4FC6242EAD303064A02EA012186
:1010E400194390F84830012B01D149BA89B2084616
:1010F400704700BF00F8FFFFCBB2C1F30722C1F372
:101104000741FFF7E5BF0000F0B585B099420446FA
:10111400BDF82800A68882BF0D4619462B46824298
:1011240082BF1546024628468E4240F28680E588F4
:10113400954240F282809E429CBF06F1FF36B3B2D4
:1011440085429CBF05F1FF35A8B2851A0090204660
:101154005E1AFFF796FE94F84136013506FB0555F5
:101164002BB9226C1AB1B4F844301B04936194F87F
:10117400423613B9A36BA28F9A610B992046FFF7ED
:10118400BBFF636AA4F844061A6822F42C421A606E
:1011940094F84810022902BF1A6842F400621A60E7
:1011A4001A6842F040021A60A26A002A47D0E76A2D
:1011B40001293A49CE5D3A49086849680DF1080E9B
:1011C400AEE8030007F1100108BF6D00032F0DEB1B
:1011D400010788BF02F10C0017F8087C98BF02F1E0
:1011E40008003F21B9400160596802EB060C41F048
:1011F400020159600C33CCF8083004F24463CCF893
:101204000C30935923F4007393519359B5F5803FEF
:1012140023F4806393512ABF4FF6FF73CCF8045034
:10122400CCF8043093592ABFA5F57F450025FF3D2E
:1012340043F00103C4F83C56935105B0F0BD0229B4
:1012440018D17DB99A68120626D494F8412622B999
:10125400226C12B1B4F8441091611A6822F0400271
:101264001A60EAE7D8609A68970701D5013DE8E774
:1012740000BFF8E7C2B2000A002DE3D0DA60996833
:101284008E0705D5D8609968890703D5013DF3E732
:1012940000BFF4E700BFF6E700BFD3E7124A000837
:1012A400C849000807B5C28883880191013A92B2FF
:1012B4000092013B00229BB21146FFF725FF03B0C9
:1012C4005DF804FB70B49942BDF90C40049DC2BFA3
:1012D4000E4619463346A242C2BF1646224634463B
:1012E400002B14DB86888E4211DD002C0FDBC688B0
:1012F40096420CDDA4B222EAE27221EAE17104957D
:1013040003949BB270BC92B289B2FFF7FDBE70BC6D
:10131400704730B51D4683888B4285B0044617DD7F
:10132400C388934214DD51EA020311D492B28BB202
:1013340000921946FFF7A5FD29462046FFF7DCFE7B
:101344000122ADF80E000DF10E012046FFF7B0FDAD
:1013540005B030BD2DE9F04F1F4685B0B942BDF947
:1013640038600F9B0C4615461CD0B24222D1B942BC
:101374001DDC002F54DB8288A24251DD002E4FDB9E
:10138400C288AA424CDD25EAE57224EAE4710F938F
:10139400B6B2BBB292B289B20E9605B0BDE8F04FB8
:1013A400FFF7B2BEB242E4DD35461646E1E73C46FD
:1013B4000F46DEE7A6EB0209A7EB010AB9F1000F1D
:1013C400B8BFC9F10009BAF1000FB8BFCAF1000AE9
:1013D400D14504DD3A462C4637460D461646BC42F6
:1013E40005DD2A463546164622463C461746A7EBF7
:1013F40004081FFA88F2A6EB050B0192C8F3C03269
:10140400BBF1000F02FA88F8B8BFCBF1000B4FEA2A
:101414006808B542B4BF01264FF0FF36BC4202DD76
:1014240005B0BDE8F08FD145CBBF22462A462946F8
:101434002146A8EB0B0803930290FFF76AFF1FFAFB
:1014440088F20FFA88F8B8F1000FDDE9020305DA33
:10145400019935440A442DB20FFA82F8013424B2BA
:10146400DCE72DE9F743DDF82C90BDF9288004462C
:101474000E461546CDE900291F46FFF76BFF33469C
:101484002A4631462046CDE90089FFF763FF3B46F3
:10149400424631462046CDE90089FFF75BFF3B46D3
:1014A4002A4639462046CDE90A8903B0BDE8F0430F
:1014B400FFF750BF2DE9F04F87B0914603919DF897
:1014C4004C20119902921F460546FFF715FE109E07
:1014D4001299746883462846FFF70EFE337A029AFF
:1014E400BB4282465CD8717AB94259D3FF1AFFB223
:1014F4003078431EDB1003F1010802934FEAC8035E
:101504000121013B01FA03F37178049308FB07F707
:1015140001FB07446F6A002A40F0BE80039B09F177
:10152400FF320A44013B034492B2009203994A46B3
:101534009BB22846FFF7A5FC2A6C1AB1B5F84430D3
:101544001B049361AB6BAA8F9A613B6823F0400341
:101554003B603B6823F42C433B6095F84830022BF6
:1015640002BF3B6843F400633B603B6843F04003C5
:101574003B6000239E467278724513DCBB689A0771
:101584004CD5BB681B064BD43B6823F040033B603F
:101594002B6C13B1B5F844209A6107B0BDE8F08F05
:1015A4000027A5E70299032904D8DFE801F0020B1C
:1015B4000D1323784444002132788A420CDC0EF166
:1015C400010ED8E72388F5E72378B4F8012003EB6C
:1015D4001223EFE72368EDE7049803FA01F20242CD
:1015E40014BF5A465246D7F808C01CF0020F07D061
:1015F40095F848C0BCF1020F04D1FA600131DBE771
:1016040000BFF0E7C2F30F2CD2B2FA60BA689007B9
:1016140002D5C7F80CC0F1E700BFF7E700BFADE79C
:1016240000BFAEE7277809EB0B0244444FF0000AF1
:1016340012B2337853451DDC0BF1010B73785B4513
:10164400ABDD029A032AEED801A353F822F000BFBF
:1016540029160008651600086916000875160008A2
:101664002788E0E72778B4F8013007EB1327DAE797
:101674002768D8E7049907FA0AF30B4209D0039BB9
:10168400059203EB0A0109B2119B2846FFF741FEBC
:10169400059A0AF1010ACCE70027BB46CEE700BF52
:1016A4002DE9F04385B005460C9E9DF83C700C4630
:1016B400904603F1FF3919F8013F2BB9EC81A5F8E5
:1016C400108005B0BDE8F0833278A98822448A42AC
:1016D4000BDD717808EB01021FFA82F811FA82F22D
:1016E400E9888A424FF00004E8DC0E9A02920D9ACF
:1016F4000397CDE90062214642462846FFF7DAFE09
:10170400337823449CB2D6E70138C0B202289CBF88
:10171400034B1B5C034888BF0023C375704700BF9D
:101724001A6D00081000002030B5074C050A20711E
:10173400A271100A0A0AA2721A0A6071E570E172B3
:1017440022736373204630BD7D000020004870473B
:101754008F000020004870479500002038B50E4BDC
:101764001A784FF47A73B3FBF2F30C4A0546106807
:10177400B0FBF3F000F080F8044658B90F2D09D8F7
:10178400024629464FF0FF3000F044F8044B20464F
:101794001D6038BD0120FCE79B00002000000020F4
:1017A4009C00002008B50B4B1A6842F400721A60C2
:1017B4001A6842F480621A601A6842F480721A60ED
:1017C400032000F015F80F20FFF7C8FFFFF7C0F85B
:1017D400002008BD003C0240034A044B11681B78FA
:1017E4000B441360704700BF2C0100209B000020B5
:1017F4000749CA6822F4E0620302120403F4E063B6
:10180400120C134343F0BF6343F40033CB607047BF
:1018140000ED00E0164B30B5DC68C4F30224C4F1DB
:101824000703251D042B28BF0423062D4FF0FF3585
:101834008CBF033C002405FA03F321EA0303A5400B
:1018440022EA0502A340002843EA0203ACBF00F1E8
:101854006040084A4FEA0313B8BF00F00F00DBB240
:10186400AABF00F56140135480F8003330BD00BFB7
:1018740000ED00E014ED00E00138B0F1807F0BD200
:101884004FF0E023054A5861F02182F8231000202C
:10189400072298611A6170470120704700ED00E04B
:1018A4002DE9F04702460D6895FAA5F44FF0010EB4
:1018B400B4FA84F403264FF00F0C35FA04F001D186
:1018C400BDE8F0870EFA04F32B406DD04868471E3C
:1018D400012F1ED8D2F8088093FAA3F7B7FA87F736
:1018E40093FAA3F97F0006FA07F728EA0708B9FA7A
:1018F40089F98F684FEA490907FA09F748EA07079F
:101904009760576827EA0308CF685F4348EA0707E8
:101914005760D2F80C8093FAA3F7B7FA87F793FAD3
:10192400A3F97F0006FA07F728EA0708B9FA89F944
:101934000F694FEA490907FA09F748EA0707022835
:10194400D7601DD193FAA3F7B7FA87F7072FD1F819
:1019540014902BDCD2F820A093FAA3F8B8FA88F8F4
:1019640093FAA3F7B7FA87F74FEA88080CFA08F84E
:10197400BF002AEA080A09FA07F74AEA07071762C2
:10198400D2F8008093FAA3F7B7FA87F793FAA3F390
:10199400B3FA83F37F0006FA07F75B0028EA070827
:1019A400984048EA00001060013486E7D2F82480A9
:1019B4001F0A97FAA7FABAFA8AFA97FAA7F7B7FAB0
:1019C40087F74FEA8A0ABF000CFA0AFA28EA0A08DB
:1019D40009FA07F948EA09075762D1E7024600689D
:1019E40010F04000F0B527D1D1E900373B438F68B0
:1019F4004D6916680C6A3B43CF683B430F693B4310
:101A04008F692B433B43CF6926F47F463B432343F3
:101A140026F0BF0633431360536823F0040343EAFC
:101A24001543B4F5005F536001D18B8C1361D36906
:101A340023F40063D361F0BD0120F8E7234A03686F
:101A440090420ED0B0F1804F0BD0A2F57C42904270
:101A540007D002F58062904203D002F58062904282
:101A640015D14A6823F070031343184A904219D0E1
:101A7400B0F1804F16D0A2F57C42904212D002F50C
:101A8400806290420ED002F5806290420AD0104AE1
:101A9400904207D002F58062904203D002F5806242
:101AA400904203D1CA6823F44073134303608B68E4
:101AB400C3620B888362054B984204BF0B690363BE
:101AC400436943F001034361002070470000014073
:101AD40000400140B1F5807F30B500F0908005D81A
:101AE40001292AD0102958D0012030BDB1F5805FDA
:101AF400FAD1036A156823F480530362036A4468C5
:101B0400C16921F4E64141EA0521156923F4005332
:101B140043EA0533556823F4805343EA0533504DB3
:101B2400A84208BF9569D26804BF24F4804444EAFB
:101B340085144460C16102642CE0036A156823F0D3
:101B440001030362036A4168846924F073042C432B
:101B5400156923F002032B43556823F001032B433B
:101B64003F4DA84212D1556923F0080343EA850387
:101B7400956823F0040343EA8503956921F4807191
:101B84002943D56921F4007141EA4501D2684160D5
:101B94008461426303620020A7E7036A156823F0A7
:101BA40010030362036A4168846924F4E64444EA46
:101BB4000524156923F0200343EA0513556823F02F
:101BC400100343EA0513264DA84213D1556923F0A7
:101BD400800343EA8513956823F0400343EA8513A1
:101BE400956921F4806141EA8501D56921F4006198
:101BF40041EAC501D268416084618263CAE7036A2D
:101C0400156823F480730362036A4168C46924F08D
:101C140073042C43156923F4007343EA05235568C0
:101C240023F4807343EA05230D4DA84213D155696B
:101C340023F4006343EA8523956823F4806343EA2D
:101C44008523956921F4805141EA0511D56921F470
:101C5400005141EA4511D2684160C461C26399E709
:101C6400000001404FF0E02382B01B690193411C46
:101C7400019B18BF01304FF0E02308B902B0704750
:101C84001A69D20348BF00F1FF30F6E7014B186030
:101C9400704700BF0000002008B50349034802F064
:101CA4009BFB034B187008BD90050020A00000208A
:101CB400940500200020704700F05EB900F0ECB9F4
:101CC40038B5054C4FF00055A56100F0EBF94FF421
:101CD4000053A36138BD00BF0008024038B5054C6D
:101CE4004FF00055A56100F01FFA4FF40053A361B3
:101CF40038BD00BF0008024000F068BA084B1A68FB
:101D040022F040021A601A6822F038021A601A6837
:101D140042EAC00018601A6842F040021A60704734
:101D240000380040044B18739A68D107FCD59A68B0
:101D34001206FCD4187B704700380040404B70B545
:101D44009C6D24F001049C651C6F24F001041C6745
:101D54009C6DE4075ED41C6FE6075BD44FF07C6493
:101D64009C603F24DC60374C374E656845F00305C2
:101D740065609D6D35409D65DD6E25F08005DD66F1
:101D84001D6F35401D67D3F8845025F08005C3F8D6
:101D94008450256845F0400525602C4C00283BD133
:101DA400986D20F400709865986D40F48060986593
:101DB400186F20F4C0601867DC675966204B24490B
:101DC400996719665A67DA659A6D42F001029A6555
:101DD4001A6F42F001021A675A6895062BD51A68E1
:101DE400140128D51A6F22F001021A679A6D22F0A5
:101DF40001029A65124B1A6FD0071ED49A6DD1074F
:101E04001BD4104B5A6822F003025A609A681206D7
:101E1400FCD470BD00BF9BE7986D20F4C06098654A
:101E2400186F20F400701867186F40F4806018670A
:101E3400D9675C66C2E700BFCEE700BFDBE700BF3F
:101E44000060024000380040E1FFFBFFB5000020C5
:101E54000C38004008B5FF20FFF764FFFF20FFF7B0
:101E640061FFFF28FAD108BD020638B504460D46C5
:101E740007D500217720FFF7F7FF012834D804F0B5
:101E84007F041C4B4FF480529A614FF080529A6148
:101E9400FFF7E0FFFF282AD12046FFF743FF280E73
:101EA400FFF740FFC5F30740FFF73CFFC5F30720EA
:101EB400FFF738FFE8B2FFF735FF402C15D0482C68
:101EC40014BF01208720FFF72DFF4C2C02D1FF20E7
:101ED400FFF728FF0A24FF20FFF724FF030603D59A
:101EE400013C14F0FF04F6D138BD9520EBE7FF2048
:101EF400FAE700BF0004024038B504460D46FF204F
:101F0400FFF710FFFF28FAD0FE280CD1AAB2214611
:101F14000020FFF713FFFF20FFF704FFFF20FFF768
:101F240001FF012038BD0020FCE770B506460D46D0
:101F3400FFF790FFFF28044619D12846FFF7F2FE69
:101F4400FD2D16D04FF4007231460120FFF7F6FE46
:101F54002046FFF7E7FE2046FFF7E4FE2046FFF7A2
:101F6400E1FE00F01F00431F5842584170BD00209D
:101F7400FCE70120FAE70000F7B5444E4FF4805324
:101F8400B3610620FFF7BAFE4FF08053B3610A2510
:101F9400FF20013DFFF7C6FE15F0FF05F8D12946E5
:101FA4004020FFF761FF012804465FD14FF4D5714B
:101FB4004820FFF759FF012842D101AD2F460424E0
:101FC400FF20FFF7AFFE013C14F0FF0407F8010BFC
:101FD400F6D19DF80630012B48D19DF80730AA2B85
:101FE40044D14FF08041E920FFF73EFF014600282D
:101FF400F7D17A20FFF738FF002837D10424FF20D7
:10200400FFF790FE013C14F0FF0405F8010BF6D134
:102014009DF8043013F0400F14BF0C2404241C4B0F
:102024001C4D1C704FF48057B7612B7804B303F038
:10203400FE0300202B70FFF761FE287803B0F0BD8B
:102044002946E920FFF710FF022836BFE92541257C
:10205400022400212846FFF707FF0028F9D14FF496
:1020640000715020FFF700FF0028D8D00024D6E7E5
:10207400DB0705D44FF08053B361FFF7EBFEB76184
:102084002B7843F001032B70D7E700BF0004024014
:1020940095050020B4000020014B1878704700BF5C
:1020A400B400002038B50D461C46114693B31B4BB3
:1020B4001B78DA0730D41A4B1B781B0758BF490228
:1020C400012C13D15120FFF7CFFE38B94FF4007122
:1020D4002846FFF711FFB0FA80F46409114B4FF45E
:1020E4008052201E9A6118BF012038BD5220FFF78C
:1020F400BBFE0028F2D14FF400712846FFF7FCFE26
:1021040018B1013C05F50075F5D100214C20FFF70D
:10211400ABFEE3E70420E8E70320E6E7B400002091
:10212400950500200004024070B50E4615461C4675
:10213400002B3FD0224B1A78D0073DD41B78590787
:102144003CD4204B1B781A0758BF6D02012C13D1C5
:1021540029465820FFF788FE50BBFE213046FFF782
:10216400E4FEB0FA80F46409174B4FF48052201E49
:102174009A6118BF012070BD13F0060F03D02146E9
:10218400D720FFF771FE29465920FFF76DFE00287E
:10219400EAD1FC213046FFF7C8FE18B1013C06F530
:1021A4000076F6D1FD210020FFF7BFFE0028DBD129
:1021B4000124D9E70420DEE70320DCE70220DAE784
:1021C400B400002095050020000402407FB5704B48
:1021D4001C7814F00104154640F0D7800E2900F253
:1021E400D280DFE801F008154F53D0D0D0D0D0D042
:1021F4009DA1B0B3C400FFF72DFEB0F1FF0418BFDA
:102204000124644B4FF480529A61204604B070BD9F
:1022140000214920FFF728FE044608B10124F0E715
:1022240010216846FFF768FE0028F7D09DF80030BB
:102234009DF808109B09012B9DF8093006D1013344
:1022440003EB01239BB29B022B60DAE79DF8072086
:102254009DF80A00920002EB91129DF80610890283
:1022640001F4406101320A449DF805105B0001F05D
:102274000F0101EBD01103F006030B44073B02FAF4
:1022840003F3E1E74FF400731380BAE7424B1E787F
:1022940016F004011CD00021CD20FFF7E5FD002835
:1022A400BCD1FF20FFF73EFD10216846FFF724FE56
:1022B4000028B3D03024FF20013CFFF733FD14F095
:1022C400FF04F8D19DF80A20102312099340BBE7BC
:1022D4004920FFF7C9FD044600289FD11021684614
:1022E400FFF70AFE002899D0B2079DF80A309DF83E
:1022F4000B100AD59DF80D205B0003F07E0303EB61
:10230400D11392090133013AE0E7CA0002F018023E
:10231400C3F3840302EB5112013302FB033393E74B
:102324001D4B1B7813706CE700214920FFF79CFDBF
:1023340000287FF473AF10212846FFF7DDFDB0FAC3
:1023440080F464095DE700214A20EFE700217A2048
:10235400FFF78AFD044600287FF460AF2E1DFF209E
:10236400FFF7E0FC05F8010BAE42F8D149E7002184
:10237400CD20FFF779FD00287FF450AFFF20FFF751
:10238400D1FC4021D8E704243BE703243DE700BF08
:10239400B40000200004024095050020016070474D
:1023A400C360009B0361C0E901127047416170473B
:1023B4008161704780F83D1080F83E2080F83F30FE
:1023C400704780F83C10704790F830007047C0693F
:1023D4007047006A704738B504460D4602F076F837
:1023E400211800B938BD11F8013D2E2B08D0013851
:1023F400F7E7284602F009FA003818BF0120F1E790
:102404000128F6D10020EDE7F8B505460446B826C4
:10241400A8272846FDF7DCFE631B984200D8F8BDC8
:10242400237883F080022F2A03D8403323700134A9
:10243400EFE703F12002D2B20F2A01D81033F5E7F7
:10244400F02B01D12770F2E7F12B08BF2670EEE7DD
:102454002DE9F04F044683696268C66825691878D7
:102464005978002AADF56D7D16DBA368002B13DBCC
:102474002768B7F804C0324462450DDCFA882B445F
:10248400934209DC96FBF0F3022B089304DD95FBE1
:10249400F1F3002B059306DC012384F830300DF5AD
:1024A4006D7DBDE8F08F089BD4F814A043430D93D1
:1024B400059B4B430793079A059B53431093089B33
:1024C400013B0F9372B6BFF34F8FBFF36F8FE16978
:1024D40014A801F002FF069062B6069B0BB102231A
:1024E400DBE794F8313043B9E36A626A52F8232097
:1024F4006263A26A52F82330A3634FF0010972B6F3
:10250400BFF34F8FBFF36F8F60A914A801F021FFB1
:1025140062B650B99DF896313BB19DF8883113F0FD
:10252400060FECD109F10109E9E7A3695A78109B78
:1025340093FBF9F39A42B8BF1A46059B0B9299454F
:1025440004DD089B033B18BF012306930F9B069AE7
:102554009B1A099372B6BFF34F8FBFF36F8F00219D
:1025640014A801F0F6FE62B60028B8D1804683466E
:102574004FF000038DF88030BBF1000F08D1D4E98F
:102584000D329B1A5B4540F32F810BF1010B12E0D6
:1025940072B6BFF34F8FBFF36F8F60A914A801F019
:1025A400D8FE62B648B99DF8963133B19DF88831AA
:1025B40013F0060FE3D0D945DADC079B434519DD58
:1025C400A1880D9A069D20894B1E1344A269127896
:1025D40012FB05F2DAF80C500195079D9B1A00EBEB
:1025E40008020138284480B200909BB2206892B25D
:1025F400FEF78AFD94F83C30012B3FF450AF9AF873
:102604002430FBB96168A2690D9F56781278A06BDB
:1026140025894B1E3B44069F12FB07F29B1A10FBB5
:1026240006F201302A4410FB06F0013D2844DAF892
:102634001870019700B200901BB2206812B209B260
:10264400FEF70FFF069B002B5CD0D4E90D530B9AC9
:10265400BDF83460ED1A079B9B1A5D43059BA9EBFB
:10266400030395FBF3F51FFA85F8A5B16168A0692A
:10267400A2680078314489B24B1E091ADAF82000A6
:102684000190501E404400B200901BB2206812B268
:1026940009B2FEF717FE6168A069A2680078BDF868
:1026A4002C70314489B24B1E091ADAF81C000190CF
:1026B4004244781E10FA82F000B200901BB22068E7
:1026C40012B209B2FEF7FEFD0B9B1D44079B9D420F
:1026D40018DA6368A56920892D78F11889B24B1E30
:1026E400491BDAF820500195079D07440138284416
:1026F40000B208EB070200901BB2206812B209B2C4
:10270400FEF7E0FD012509F1FF3600F00BFB94F81C
:102714003E2005FA02F2024002D0636BB34210DBA2
:1027240094F83D3005FA03F3034203D0636B002BA6
:1027340000F3118294F83F3005FA03F30342E4D026
:1027440052B1A36B059A0133934202DA4B45B8BFE9
:10275400A363636B0133636394F83D2001239340C7
:10276400034207D0A36B013B23EAE373A363636BC8
:10277400013B636394F83F200123934003423FF4F9
:10278400E9AE656B002D40F05081E36A002B00F048
:102794004781E06901F09AFE2B46411E0029E06959
:1027A40002DB002D00F03481023101F0D5FFE16A33
:1027B400E0618900606A01F0CFFFE16A606289002C
:1027C400A06A01F0C9FFE36AA062013BE36200234F
:1027D40084F8313072B6BFF34F8FBFF36F8F14A8F4
:1027E40001F0AEFD62B66DE6059A13445B457FF7D2
:1027F400CCAEDAF804300C93BBF1000F70D10F9A11
:10280400A849A94D20A801F049FED4E90063A268B3
:10281400A169119308EB02031293F26D0B784878C7
:102824000A9206F160018A424FEA430208BF06F2A7
:102834004E3113920A9AF1650E924FF0000E7045D4
:1028440000F3B38085B2B06ABDF84410BDF84820E7
:102854009BB2002840F0CF8002900A98CDE9005046
:102864003046FEF7FDFB20A8FFF7CEFD20A801F0BF
:102874002DFE099B1D1A9842C8BF002520AB0344B6
:102884002A461846202101F0B8FF4FF000024255B5
:10289400626BDAF810301BF0010F18BFDAF814304D
:1028A4005A4507D1DAF808200C929AF824200AB184
:1028B400DAF81830A56960682978A2680144002014
:1028C400CDE902300C9B20684244CDE9005392B21A
:1028D40020AB89B2FEF7E4FEA3695B78984454E622
:1028E4000DF5CB7001F0F2FD099B984217D80DF558
:1028F400CB7120A801F0E1FD9DF88831D90631D5CE
:10290400DAF80030694D0C93636B5B457FF47DAF5F
:102914004FF48C7260A9A6A801F0CAFF75E7089B62
:10292400DA1E069BD21A9DF88831D80609D50DF512
:10293400CB7120A801F0B2FD5A4920A801F0E2FDB4
:10294400DAE70DF5CB700A9201F0C0FD0A9A00286F
:10295400EDD0431E60A91944897D2E2900F0D28050
:102964001846F4E752490DF5CB70FFF734FDB0B9C2
:1029740050490DF5CB70FFF72EFD90B94E490DF57A
:10298400CB70FFF728FD70B94C494D4D0DF5CB7058
:10299400FFF721FD4B4B002808BF1D46B4E74A4D05
:1029A400B2E74A4DB0E74A4DAEE795F805C00021BD
:1029B4000EFB0CFCBCFBF0FC8B4206DC0E99139A5C
:1029C40011440E910EF1010E39E72F7901FB07F244
:1029D400B2FBF3F207FB0C272A6832F8177096F85B
:1029E4004820012A01D17FBABFB20E9A22F8117091
:1029F4000131E1E700BF3046CDE911120E93FEF735
:102A04009FF9DDE911120E9B0028F3D1012023E781
:102A1400455C4354A5F12F02554255410139BDE6A9
:102A2400626A1360A26A1360D1E69DF8A032DB06E5
:102A340052D5E669304601F049FD05460DF2AE2057
:102A440001F044FD2844811C304601F085FE2149F3
:102A5400E06101F057FDE0690DF2AE2101F052FD95
:102A6400E36A606A626B40F82320D4E90A32A16BFE
:102A740043F82210E16A4B1C0231E362890001F041
:102A84006BFEE16A606201318900A06A01F064FEB4
:102A9400626AE16AA062002342F82130E26A40F8E7
:102AA400223095E61D6D0008BC6F0008A46F000875
:102AB400206D00087A6E0008C16D0008256F0008BB
:102AC400CC6F0008AC6F00089C6F0008B46F00085E
:102AD400C46F0008D0490008206A08B101F088FDDD
:102AE4000DF2AE2001F01CFD4FF4807320622386AA
:102AF40072B6BFF34F8FBFF36F8F14A801F020FCA1
:102B040062B6CCE401283FF412AF0DF5CB731D1867
:102B140028460A9201F0DAFC0A9A0DF5CB71121AD2
:102B240020A801F0BBFC20A801F0D0FC06462846F2
:102B340001F0CCFC099B0A4930441A1A20A801F080
:102B4400CCFC20A801F0C2FC099B29461A1A20A833
:102B540001F0C3FCD0E6002A3FF404AEF1E500BF67
:102B64001D6D000810B56821012001F023FD04212A
:102B74000446012001F01EFD04216062012001F0E1
:102B840019FDA0620C4801F0CBFC0C4B23640C4BE8
:102B940063640C4BA3640C4BE3640C4B23650C4B38
:102BA40063650C4BA3650C4BE3650C4B23660C4B24
:102BB400E0616366204610BD114A0008A1230008A5
:102BC400A5230008B1230008B5230008B923000891
:102BD400C723000855240008CD230008D323000888
:102BE400D72300082DE9F04F2DED028B8269C668CA
:102BF40008EE101A117896FBF1F687B04E4301EBFC
:102C0400410A4B0056450446059332DB5578026968
:102C140092FBF5F205FB02F845452ADCA6EB0A0215
:102C240002EBD272521092FBF1F2A8EB0501436859
:102C340002934910B1FBF5F18A421346B8BF0B4623
:102C4400426D04930121D0F808B090476B000393C0
:102C54004FF00009049B994510D1636D0021204673
:102C64009847656C0299CDF8008033465A46204651
:102C7400A84707B0BDEC028BBDE8F08F0298009521
:102C8400A8EB0502A6EB0A0102EBD27201EBD171AB
:102C9400534600EB61010BEB62022046676CB847B8
:102CA400A26D2046904718EE100AFEF7DBFF059B45
:102CB40003EB0A02039B591909F101098845A8BFCE
:102CC4000D469642A8BF9246C4E700002DE9F0479E
:102CD400DFF84890DFF848A099F800400134E4B2E6
:102CE40089F8004004EB440407460E46DAF8000075
:102CF400A10090461D4601F02FFD99F80010CAF876
:102D040000006FF00B020C2313FB0123C218C75001
:102D140082F8088055725660BDE8F0879605002059
:102D2400EC050020104AD36870B523F001030F4E60
:102D3400D3603578ADB10E4B1C785CB10D4B1946A0
:102D44004C2251F8044B184601F03DFD013D002290
:102D54003570C264044AD36843F00103D36020464B
:102D640070BD2C46F6E700BF0044014098050020E2
:102D7400960500209C050020334AF0B5136923F022
:102D840001031361314B1C78002C2CD0304B0021F3
:102D94001A6801250B46507A013140B9106806695A
:102DA4005068064202BF107A05FA00F003438C42D1
:102DB40002F10C02EFDC274A2749002B3AD01068B5
:102DC400984237D10A780132D2B2012A0A700AD95C
:102DD400224D2A78A2B102220A7021490A680132DE
:102DE400072A01D80A60F0BD00220A601D490A784A
:102DF400132AF8D81C4840F8223001320A70F2E74E
:102E04001A4C226842B9174E307813289FBF164FC8
:102E140047F82030013030700132632A01D8226033
:102E2400E1E701222A700E4A002323601360022383
:102E34000B70D8E71360094A00231370084A0B701B
:102E440013600A4A1360CEE700440140960500204F
:102E5400EC050020F005002097050020F80500206F
:102E6400F4050020980500209C050020FC050020A6
:102E7400034B1A1803EB80004368107A5B68184709
:102E840008080020064B1A5C42B901221A541A1889
:102E940003EB80004368107A1B68184700207047D2
:102EA4000808002030B4054C251804EB8000406865
:102EB4008468287AA44630BC604700BF0808002014
:102EC40030B4054C251804EB80004068C468287AA7
:102ED400A44630BC604700BF08080020054B10B46E
:102EE4001C1803EB80004368207A1B695DF8044BCF
:102EF400184700BF08080020006870470B0A0170DB
:102F040043700B0C090E8370C1707047024400F8C3
:102F1400011B9042FBD1704783690239023B8B420B
:102F240083BF4389C06A01FB030000207047C2F3DA
:102F340007238A76CB760378032B01BF120C0A751C
:102F4400120A4A75704700F10B010022D30143EACB
:102F5400520310F8012B52FA83F38842DAB2F5D106
:102F640010467047026810B552B111460B4611F86D
:102F7400014B1F2C0CD93A2CF8D1511C8B4202D096
:102F84004FF0FF3005E01278302AF9D101330360A5
:102F9400002010BD38B50D46044618B90920002399
:102FA4002B6038BD0368002BF8D01A78002AF5D0BE
:102FB4008188DA889142F1D15878FFF759FF10F0EF
:102FC4000100EBD12368EBE72DE9F0410025D0F8AF
:102FD40000808D75836906460C46002B5AD0C36A5F
:102FE40001330AD001F11507D8F80C3033F8150075
:102FF400002851D125440023AB75F169A57D002338
:103004004E1E18462E2716F8012F202A00F1010023
:1030140026D0052A08BFE522092807D104EB030CB2
:103024000DB98CF816708CF80970013304EB030C9D
:103034008CF809209DB9A2F1410EBEF1190F0CD8EC
:10304400082891F80C808CBF4FF0100E4FF0080E3A
:1030540018EA0E0F1CBF2032D2B28CF816200133AE
:103064000B28D0D12DB9E21895750A7B002A08BF28
:103074000023234400225A72CB7A237201F11C00EC
:10308400FFF73AFF206001F11600FFF735FFE080FB
:10309400000CA080BDE8F081002101F0A1F930B15D
:1030A4000135B5F5807F02D007F8010F9CE70025B4
:1030B400A0E701380A4411F8013B00F8013F9142AE
:1030C400F9D170472DE9F041066B00F1340804464C
:1030D4000123407832464146FFF7F2FE0546A8B97F
:1030E400636AE269E070F31A934202D2A778012F6F
:1030F40002D82846BDE8F081E36960781E44324670
:1031040001234146FFF7DCFE013FF0E70125F0E72C
:10311400C3780BB1FFF7D6BF1846704738B5036BB9
:103124008B4205460C4610D0FFF7F2FF60B92246E9
:103134006878012305F13401FFF7B4FE00281CBFB1
:103144004FF0FF3401202C6338BD0020FCE7000061
:10315400002310B5C3704FF0FF3303630446FFF739
:10316400DDFF034618BBB4F832124AF655229142E9
:103174001FD194F83420E92A05D0626B0F4902F07C
:10318400FF128A4217D104F16A00FFF7B5FE0C4A18
:1031940020F07F40904208D004F18600FFF7ACFE97
:1031A400084BC01A18BF01204300184610BD042361
:1031B400FBE70323F9E70223F7E700BFEB009000E6
:1031C4004641540046415433F0B5002385B00B60AA
:1031D4000F461546FFF7C6FE061EC0F20C81894B4A
:1031E40053F82640002C00F008813C60237805F059
:1031F400FE0563B16078FFF73BFEC70707D41DB136
:1032040010F0040500D00A25284605B0F0BD0023BF
:10321400F0B223706070FFF735FEC10700F1EF8054
:103224000DB14207EFD400212046FFF791FF022899
:1032340040F0C8806F4604F5FD7304F23A213A4623
:1032440013F8040C10B11846FFF756FE10338B42E6
:1032540042F8040BF4D1002557F8046B002E00F05B
:10326400A88031462046FFF773FF012800F2A280B0
:10327400B4F83F30B3F5007F40F0A880B4F84A10AA
:1032840021B904F15800FFF737FE014694F84420B1
:10329400E161531E012BA27000F2988094F8415012
:1032A4006581002D00F092806B1E2B4240F08E80D1
:1032B400B4F8457027813B0740F08880B4F8470094
:1032C40018B904F15400FFF717FEB4F84230002B8C
:1032D4007CD001FB02FE03EB171CF444604575D35C
:1032E400A0EB0C00A842B0FBF5F26FD34FF6F570DB
:1032F40082426FD840F6F575AA428CBF022501259B
:10330400023233440CEB0600032DA2612662636291
:10331400E06261D1B4F85E303B4357D104F1600000
:10332400FFF7EAFD920002F2FF12B1EB522FA06206
:103334004CD34FF0FF33C4E90433032D4FF0800323
:1033440023712BD1B4F86430012B27D1711C204692
:10335400FFF7E4FE10BBB4F8322220714AF655237D
:103364009A421BD104F13400FFF7C6FD264B984264
:1033740014D104F50670FFF7BFFD03F1FF5303F505
:1033840000532033984209D104F50770FFF7B4FDC8
:10339400606104F50870FFF7AFFD20611B4A2570DA
:1033A400138801339BB21380E380194BE36000253B
:1033B4002AE703200135042D7FF44EAF042805D1FC
:1033C400012521E70428FBD0012801D90D251BE79D
:1033D40000264DE7032593E7002FF7D0022D03EBDA
:1033E4000E004FEA42031BBF9B1802F001021A466B
:1033F40002EB530297E70B2506E70C2504E70325A8
:1034040002E700BF0006002052526141040600207A
:103414000606002001292DE9F04706460C4617460A
:1034240073D983698B4270D90378022B3FD0032B65
:1034340050D0012B69D101EB5108416A01EB5821AD
:10344400FFF76CFE054638BB06F1340908F1010AA2
:10345400C8F3080814F001041FBF19F808203B0141
:1034640003F0F00302F00F0214BF1343FBB209F898
:103474000830716A0123F37001EB5A213046FFF7DB
:103484004DFE054640B9CAF3080A44B1C7F307170D
:1034940009F80A700123F3702846BDE8F08719F88B
:1034A4000A30C7F3032723F00F031F43F0E7416AF1
:1034B40001EB1421FFF732FE05460028ECD164002D
:1034C40006F1340304F4FF741A191F55C7F30727D0
:1034D4005770DFE7416A01EBD411FFF71FFE054681
:1034E4000028D9D1A40006F1340304F4FE74234463
:1034F4001846FFF701FD27F0704700F0704047EAD7
:1035040000011846FFF7FAFCC4E70225C4E7F8B542
:103514000446FFF7FDFD0546002842D12378032B1E
:1035240037D12779012F34D104F1340601464FF401
:10353400007230465523FFF7E9FC84F83232AA239F
:1035440084F8333252234122722184F8343084F8CF
:103554003530612384F8363084F81B3284F8372000
:1035640084F8181284F8191284F81A22616904F58F
:103574000770FFF7C3FC216904F50870FFF7BEFC70
:10358400226A6078013222633B463146FFF798FC99
:103594002571002260781146FFF7A0FC003818BF9F
:1035A4000120F8BD03284B8B04BF8A8A43EA0243F7
:1035B400184670470129F8B506460C464ED983696A
:1035C40099424BD20378022B29D0032B34D0012B00
:1035D40044D101EB5105416A01EB5521FFF79EFDF2
:1035E40010B14FF0FF30F8BD6F1C716AC5F30805C8
:1035F400354401EB5721304695F83450FFF78EFDE2
:103604000028EED1C7F30807374497F8343045EA69
:103614000320E3074CBF0009C0F30B00E3E7416A52
:1036240001EB1421FFF77AFD0028DAD1640004F4D9
:10363400FF743444A08ED6E7416A01EBD411FFF73E
:103644006DFD0028CDD1A40006F1340004F4FE740D
:103654002044FFF751FC20F07040C4E70120C2E78A
:1036640073B50C46012C0568064611462CD9AB6986
:10367400A34229D92AB14FF0FF322846FFF7CAFEE8
:1036840040B9214630680194FFF794FF019904463C
:1036940010B9002002B070BD012815D0431C15D00C
:1036A40000222846FFF7B6FE0028F3D1D5E90532FB
:1036B400911E8B4205D201336B612B7943F00103D8
:1036C4002B71A242DDD8E4E70220E3E70120E1E721
:1036D4002DE9F041056880460F4671B92E69EEB1B7
:1036E400AB69B34298BF01263446AB690134A342A7
:1036F40017D8012E14D1002406E02846FFF75AFFFC
:103704000128044603D801242046BDE8F081431C67
:1037140030D0AB698342F7D83E46E5E70126E3E7BC
:103724000224D8F800002146FFF744FF30B10128F5
:10373400E9D001301ED0B442D7D1DCE74FF0FF32DC
:1037440021462846FFF766FE90B957B9D5E90532F8
:10375400023A93422C6110D92B7943F001032B7167
:10376400D2E7224639462846FFF754FE0028EDD01A
:103774000128C8D14FF0FF34C6E7013B6B61EBE78A
:10378400B1F5001FF8B5056806460C4601D30220C2
:10379400F8BDCA06FBD182680161BAB92B78022B45
:1037A40001D9AB6A9BB92B89B3EB541FEFD9A86A33
:1037B400C6E905200028EAD000EB54203435C4F3D0
:1037C40008042544B061F5610020E1E713466F89E0
:1037D4001A467F02BC42114603D22846FFF79CFBDF
:1037E400E6E73068FFF7E6FE431C024606D00128F0
:1037F400CDD9AB698342CAD9E41BEBE70120C7E703
:1038040003692DE9F04703F12008836905468A46D8
:103814008BB1B8F5001F0ED2C8F308070468002F57
:103824004FD141690133836139B92389B3EB581FFF
:1038340047D80023AB6104200DE0B4F80A9009F1E5
:10384400FF3919EA58293CD12046FFF7B3FE012875
:10385400064602D80220BDE8F087421C01D10120AF
:10386400F9E7A369834226D8BAF1000FE1D0696968
:103874002846FFF72DFF0646002835D00128E9D059
:10388400431CECD02046FFF743FC01460028E6D158
:1038940004F134004FF40072FFF738FB3146204640
:1038A400FFF73AFB4FF0010A6389206399450FD370
:1038B400A0EB090020636E6131462046FFF72CFB24
:1038C400A86134343C44C5F81080EC610020C2E7A0
:1038D40084F803A02046FFF7F5FB0028BFD1206B36
:1038E40009F101090130DFE70720B4E72DE9F04FC2
:1038F400002185B0D0F800B00446FFF741FF06462A
:10390400002840F098804FF0FF3A4FF0FF08C4F8C9
:103914002CA0C146A1695846FFF700FC06460028C2
:1039240040F08980E5692F78002F00F08880EA7ADA
:10393400E52F02F03F03A37103D0100704D50F2B2A
:1039440004D0C4F82CA050E00F2B56D194F82B309F
:10395400590640D47A0646D5236995F80D80E3626A
:1039640007F0BF076B7B43453FD16B8B002B3CD1EA
:103974002E78DBF80C30009306F03F06013E0D2351
:10398400DFF8C4905E43012219F8013BEB5A7AB385
:10399400FE2E2AD81846039300F03EFD009B0290A9
:1039A400711C33F81600019100F036FD029A824230
:1039B4001BD1039B01991A460E46224B9945E3D12C
:1039C4002B785B0604D51AB1009B33F8163063B923
:1039D400013F5FFA87F900212046FFF711FF0646F1
:1039E400002897D027E0B945BCD04FF0FF09F2E793
:1039F4004FF6FF718B42E0D0F7E7B9F1000F04D125
:103A04002846FFF7A0FA404515D094F82B6016F02D
:103A1400010696D104F1200205F10B0115F8013BD2
:103A240012F8010B8D42A3EB000302D0002BF5D05A
:103A340087E7002B85D1304605B0BDE8F08F04261A
:103A4400F9E700BF917D0008847D00082DE9F04F5F
:103A540090F82B5015F0A00589B0044640F09080F2
:103A64000668F26832F81530002B67D104F120079C
:103A74000C22394605A8FFF71CFB9DF81F30DB0715
:103A840040F187804023DFF8408284F82B304FF0E8
:103A9400010A0B2205A93846D6F80C90FFF709FB5A
:103AA400BAF1050F5BD9A9F10201534631F8022F8F
:103AB400002A45D105A8072203F00F0C0CF13001B0
:103AC400392988BF0CF137010F2B00F8011D02F1D1
:103AD400FF324FEA131144D802F120036B447E21D4
:103AE40003F8141C04F11F01084600239A4206D06F
:103AF40010F801CFBCF1200F03F1010E33D1072AD6
:103B04009CBF02F12000684403F1010396BF10F842
:103B1400140C20200132072BC854F0D92046FFF79B
:103B2400E5FE814678BB0AF1010ABAF1640FB0D10F
:103B34004FF00709484609B0BDE8F08F013591E719
:103B4400102002F0010C0CEB430313F4803F18BF68
:103B540083EA080301384FEA5202F2D1A6E753463A
:103B6400A8E70B46A8E77346C0E780460121204634
:103B7400FFF746FE814610B3B9F1040FD8D0D9E758
:103B84004FF00609D6E70428D4D19DF81F3084F8F5
:103B94002B309DF81F30D4F800A09B0748BF0C358C
:103BA4004FF00001204649BF0D230125B5FBF3F575
:103BB4000135FFF7E5FD81460028DDD18046A16986
:103BC4005046FFF7ABFA81460028D5D1E3691B784C
:103BD400E52B01D0002BC8D108F101084545C5D11A
:103BE400013D55D021692046A1EB4511FFF7C8FDE1
:103BF400814600289ED13846FFF7A5F94FF6FF7895
:103C04000190A1693046FFF789FA8146002891D1D5
:103C1400E369019AD6F80CE05A73E9B24FF00F0247
:103C24004FF00D0CDA72DFF8A4A018734A1E0CFBD7
:103C340002F29876D87684461AF8019B404518BF5C
:103C44003EF8120003F8090003EB090B0CF1010C18
:103C540018BF01324FEA1029002808BF4046BCF1C2
:103C64000D0F8BF80190E7D1404502D03EF81220A9
:103C74000AB941F0400119700123F3700021204674
:103C8400FFF7BEFD814600287FF454AF013DB8D153
:103C9400A1693046FFF742FA814600287FF44AAF13
:103CA40001462022E069FFF731F90B22E069394629
:103CB400FFF7FFF994F82B30E26903F0180313734C
:103CC4000123F37036E700BF21100100847D000852
:103CD4002DE9F843FF27D0F8008006463C4604252A
:103CE4004FF6FF79B16911B9002D5FD04FE040461E
:103CF400FFF714FA0546002849D1F0690378002B30
:103D04005CD0C27AE52B02F03F02B27144D02E2B74
:103D140042D022F0200108293ED00F2A41D1590671
:103D240038D503F0BF043369477BF362437BBB425E
:103D340032D1428B82BB0378D8F80C50DFF880C0B4
:103D440023F04003013B0D214B434FF0010E1CF8BF
:103D5400011B415ABEF1000F20D0FE2B1CD825F8C0
:103D640013108E46013301320D2AF0D10278520627
:103D740004D5FE2B10D8002225F81320013CE4B210
:103D840000213046FFF73CFD05460028AAD0002359
:103D9400B3610CE0A342C9D0FF24F1E74945E2D066
:103DA400FAE73CB9FFF7CFF8B84203D1002528461B
:103DB400BDE8F8834FF0FF33F362F8E70425E6E744
:103DC400847D00082DE9F74FD0F800B006468946F7
:103DD40011F8013B2F2BFAD05C2BF8D00021B160F5
:103DE40099F800301F2B00F2B2808023304686F809
:103DF4002B3003B0BDE8F04FFFF7C2BC0135BAE089
:103E0400B5F5807FCDE900320ED00121204600F0C7
:103E1400E7FA48B17F28DDE9003207D87F4C14F86F
:103E2400011B19B18842FAD106204DE023F8020F94
:103E34002F4695E038F81730202B02D02E2B40F077
:103E4400A680013FA0E00131ADE0434505D2BA426E
:103E540049D1B8F10B0F3FD102E0B8F10B0F36D1C5
:103E640044F003044FF00B0896F82030E52B04BF10
:103E7400052386F82030B8F1080F04BFAD00EDB279
:103E840005F00C030C2B03D005F00302032A01D127
:103E940044F00204A10709D405F00305012D08BF6D
:103EA40044F01004042B08BF44F0080486F82B40A7
:103EB4003046FFF71BFD96F82B30C0B3042803D11E
:103EC40013F0040F08BF052003B0BDE8F08FBA4219
:103ED40002D044F00304C7D8AD00EDB23A464FF027
:103EE4000B08082389E07F280ED90021CDE900239F
:103EF40000F076FA44F00204DDE9002360B1484999
:103F0400084410F8800C38B1DFF818C11CF8011B04
:103F1400002976D08142F9D144F003045F20F118DE
:103F2400013381F8200068E045F00205F7E75A07FD
:103F3400CAD4B379DB0662D533699BF80000C3F3B6
:103F440008030BF134011944FFF72CFBB06033680C
:103F5400D3F80CA0AAF1020809F1FF324346002766
:103F640012F8014F1F2C07F101050CD92F2C02D098
:103F74005C2C7FF445AF19F805302F2B3FF43EAF8E
:103F84005C2B3FF43BAFA944002F7FF453AF0023D5
:103F94002AF81730002F3FF447AF202170180B2266
:103FA400FEF7B4FF19463AF81130202B3FF44BAF1B
:103FB4002E2B3FF448AF1F2C8CBF00240124A400F7
:103FC40009B144F0030438F817302E2B01D0013F17
:103FD400F9D100234FF008081D463AF811004A1C95
:103FE40000283FF441AF202805D02E287FF42DAFC0
:103FF400BA423FF42EAF44F003041146EDE7052026
:1040040062E7A0F1410119298ED9A0F161011929B2
:104014009EBF203845F0010580B280E7F47C00089B
:10402400047D0008FD7C00081FB5CDE9001003A83D
:1040340014460391FEF796FF031E15DB0C4A52F853
:10404400231009B100200870019808B10021017003
:1040540042F8230030B1012C08D1002201A968469E
:10406400FFF7B2F804B010BD0B20FBE70020F9E71E
:10407400000600202DE9F04391B0904601910446DA
:10408400002800F0D08002F03F06324603A901A8C0
:10409400FFF79AF8074600284CD1039D019904952F
:1040A40004A8FFF78FFE20B99DF93B30002BB8BF61
:1040B400062018F01C0F00F09580002841D0042839
:1040C40038D104A8FFF7C2FCA0BB46F00806FDF7F0
:1040D400F1FD014600900B980E30FEF70FFF0B9890
:1040E40000991630FEF70AFF0B9B2022DA720B9917
:1040F4002878FFF757FA002280462846FEF717FF74
:104104000B9B00221A775A779A77DA770123EB70A0
:10411400B8F1000F20D0414604A8D5F83090FFF73D
:104124009FFA38B949462846FEF7F8FF08F1FF33ED
:104134002B6188B1002323600746384611B0BDE8DF
:10414400F0839DF8163013F0110F56D118F0040FB8
:1041540063D118F0080FBAD12B6B236231070B9986
:104164006162287848BF46F04006FFF71BFAA0605A
:1041740001F11C00FEF7C0FE0021EB88E06004F1B1
:104184002C084FF40072A1622560A3802674617428
:10419400E16161614046FEF7B9FEB206CDD5E6683D
:1041A400002ECAD0B5F80A90A16866614FEA492981
:1041B400B14524D30020A1610028BBD1C6F3080374
:1041C400002BBAD02846FEF7A7FE50B300EB5622C8
:1041D400E261687801234146FEF764FE0028ACD012
:1041E4000120A7E70028A5D19DF81630DA0616D4D9
:1041F40018F0020FB0D0D807AED507209AE7206890
:10420400FFF7D8F901280146A6EB090603D9431C98
:10421400CED10120CFE70220CDE708208AE7042091
:1042240088E7022086E7092787E72DE9F34101A9FA
:104234000546FEF7AFFE044600283BD12B7C13F065
:10424400400437D01B06019F0BD5EA697878012317
:1042540005F12C01FEF734FE80BB2B7C03F07F03B9
:104264002B74FDF727FD296A80463846FEF756FF72
:104274000446F8B96E6AF37A43F02003F372AA682D
:1042840028683146FEF753FEE96806F11C00FEF784
:1042940035FE414606F11600FEF730FE0123B474E4
:1042A400F4743846FB70FFF732F92B7C23F040039B
:1042B40004462B74204602B0BDE8F0810124F9E7DE
:1042C40013B50446FFF7B1FF28B901A92046FEF74C
:1042D40061FE00B9206002B010BD30B585B004465F
:1042E400019140B3002203A901A8FEF76DFF70B944
:1042F400039D019925602046FFF764FDE8B994F910
:104304002B30002B0BDBA379DB0603D40520002321
:1043140023600EE02878E169FFF744F9A060EB8898
:10432400A38000212046FFF72BFA0428EED00028B2
:10433400EDD105B030BD0920FBE70428E6D0E6E75F
:1043440013B501A90446FEF725FE00B9206002B0AA
:1043540010BD73B50D4601A90446FEF71BFEC0B996
:1043640035B92946204602B0BDE87040FFF708BAC7
:104374002046FFF7ADFC10F0FB060AD12946204683
:10438400FEF722FE31462046FFF73AFA042808BF1A
:10439400002002B070BD000030B50E4B5D7A05F010
:1043A400FF04ADB95D7A5C555D7A03EB8505686001
:1043B400587A184402725A7A501CC0B258723A237E
:1043C40030324B702F230A708B70CC70204630BD76
:1043D4000124FBE7080800200022FFF7DDBF0000EE
:1043E4007F2810B506D931B1FF2811D8094B803880
:1043F40033F8100010BD074A32F8024B84428BB2E6
:1044040003D001318029F7D10B468033D8B2F1E7CC
:104414000020EFE7927D000870B51E4B1E4AB0F5F0
:10442400805F28BF1346191D31F8043C0A46ABB11E
:10443400984213D331F8024C250AE6B253FA84F4B5
:10444400A04221DA082D09D8DFE805F005090F118B
:10445400131517191B00C01A31F8100070BDC31AC8
:1044640003F00103C01A80B2F8E71038FBE72038E4
:10447400F9E73038F7E71A38F5E70830F3E750384A
:10448400F1E7A0F5E350EEE70431002DCCD102EBC7
:104494004603C8E7927E000884800008013902447C
:1044A400131A002B02DC00230370704711F8013F3C
:1044B400002BF8D000F8013BF2E7013911F8013F75
:1044C4000BB90370704700F8013BF7E70023C25CA7
:1044D4000AB9184670470133F9E738B5044615465A
:1044E400FFF7F4FF2044013905442B1A002B02DCAA
:1044F4000023037038BD11F8013F002BF8D000F8F9
:10450400013BF2E710B50446FFF7E0FF0139204410
:1045140011F8013F0BB9037010BD00F8013BF7E738
:1045240010B50446FFF7D2FF0121084400F042F819
:10453400024610B12146FFF7C0FF104610BD0EB46D
:10454400F3B507AE044656F8047B019601460025F0
:1045540069B90121681800F02DF8054608B10196E3
:10456400ACB9284602B0BDE8F04003B07047019BE7
:104574001A1D18680192FFF7A9FF30B101290544FB
:1045840003D03846FFF7A2FF05440139E0E7019B59
:1045940019681A1D08460192FFF798FF40B1284692
:1045A400FFF7B0FF012C03D039462846FFF7AAFFD6
:1045B400013CD5E7024B0A460146186800F002B8F0
:1045C4000401002037B5A1FB02244CB91146019225
:1045D40000F036F8019A054630B9284603B030BDDC
:1045E4000C2202600025F8E7214600F006F9F4E702
:1045F400024B0146186800F069B900BF04010020AD
:1046040070B50E4E0C463168054611B900F014F928
:1046140030602146284600F00FF9431C0AD0C41C20
:1046240024F00304A04207D0211A284600F004F91C
:10463400013001D14FF0FF34204670BD180800202E
:104644002DE9F843CD1C25F0030508350C2D38BFA2
:104654000C25002D074601DBA94205D90C233B603C
:1046640000263046BDE8F883DFF8D08000F068F813
:10467400D8F800301C465CBB29463846FFF7C0FF1B
:10468400431C044655D1D8F800402646002E45D197
:10469400002C48D023683146384604EB030900F067
:1046A400CBF881453FD121686D1A29463846FFF77A
:1046B400A7FF013037D023682B442360D8F800309B
:1046C400002B38D05A68A2422BD100225A600FE046
:1046D4002268521B1FD40B2A17D96119A3422560E3
:1046E40018BF5960636808BFC8F8001062514B6076
:1046F400384604F10B0600F029F826F00706231DBE
:10470400F21AAED09B1BA350ABE7A3426268DDD183
:10471400C8F80020ECE723466468ACE734467668C2
:10472400B4E71346CCE70C233B60384600F00EF8A0
:1047340097E72560DCE75B60FFDE00BF140800201C
:10474400014800F0B3B800BF58090020014800F048
:10475400AEB800BF58090020024B0A46014618684B
:1047640000F002B8040100202DE9F041804614460F
:104774000E4621B9BDE8F0411146FFF761BF2AB9E1
:1047840000F0A4F825462846BDE8F08100F0EAF8D8
:104794008442074602D8B4EB500F12D82146404653
:1047A400FFF74EFF05460028EDD0BC4222463146B5
:1047B40028BF3A4600F07CF83146404600F086F8BF
:1047C400E1E73546DFE7884210B501EB020402D980
:1047D4008442234607D8431EA14208D011F8012B76
:1047E40003F8012FF8E7024401468A4200D110BDC4
:1047F40013F8014D02F8014DF7E7024403469342D2
:1048040000D1704703F8011BF9E70A7870B56AB95B
:1048140070BD9A4209D10C46054614F8013F002B9D
:10482400F6D015F8016F9E42F7D001300378002BC3
:10483400EFD11846ECE7000038B5064D00230446D6
:1048440008462B60FCF7BAF8431C02D12B6803B16D
:10485400236038BD54090020014B1868704700BF1D
:104864000401002070B50D4D0D4C641BA4100026EE
:10487400A64209D10B4D0C4C00F07CF8641BA4102B
:104884000026A64205D170BD55F8043B9847013671
:10489400EEE755F8043B98470136F2E740810008FB
:1048A4004081000840810008448100087047704737
:1048B4000A44914200F1FF3300D1704710B511F85A
:1048C400014B03F8014F9142F9D110BD37B50029CE
:1048D40044D051F8043C0190002BA1F10404B8BF6A
:1048E400E418FFF72DFF1E4A0198136833B963607B
:1048F400146003B0BDE83040FFF728BFA34208D9D5
:10490400256861198B4201BF19685B6849192160E8
:10491400EDE71A465B680BB1A342FAD91168551842
:10492400A5420BD1246821445418A3421160E0D15C
:104934001C685B6853600C441460DAE702D90C23EA
:104944000360D6E7256861198B4204BF19685B6868
:10495400636004BF491921605460CAE703B030BDE5
:104964001408002051F8043C181F002BBCBF0B583E
:10497400C0187047F8B500BFF8BC08BC9E46704725
:0C498400F8B500BFF8BC08BC9E467047A8
:1049900000040040010000000000000000003200A0
:1049A000000000000000000000000000FFFFFF000A
:1049B000FFFFFF00F5F5F50000000000DBDBDB008A
:1049C000F5F5F500000000000006101600061016B0
:1049D0002F0046696C65206F70656E656420737585
:1049E0006363657366756C6C79210046696C65203C
:1049F0006F70656E696E67206572726F7221004517
:104A000072726F722046696C654D616E6167657286
:104A10002100102840587088A0B800000000000055
:104A20000000000000000000000000000000000086
:104A30000000000000000000000000000000000076
:104A4000000000000000000000000000000600065A
:104A50000006000600060006000600000006000F23
:104A60000006000000000000000000000000000040
:104A70000000000080198019801980198019000039
:104A80000000000000000000000000000000000026
:104A9000000000000000000000000000600660064A
:104AA000C00CC00CF07F80198019E0FF0033003388
:104AB000006600660000000000000000000000002A
:104AC0000000000000060006C01EC031C0300030EB
:104AD000000FC000C030C038803700060006000656
:104AE0000000000000000000000000000038006C22
:104AF0000044C06C00390006C00960332002600326
:104B0000C0010000000000000000000000000000E4
:104B100000000000001F8031003000300018C03C51
:104B2000C06680638061C073603E000000000000CA
:104B30000000000000000000000000000006000669
:104B40000006000600060000000000000000000053
:104B50000000000000000000000000000000000055
:104B6000000000000001000300060006000C000C1D
:104B7000000C000C000C000C000C000600060003EA
:104B80000001000000000000000000000008000C10
:104B900000060006000300030003000300030003F7
:104BA000000300060006000C0008000000000000E2
:104BB0000000000000060006C036801F000F8019AC
:104BC000801900000000000000000000000000004C
:104BD00000000000000000000000000000000000D5
:104BE0000004000400040004C07F0004000400046A
:104BF00000040000000000000000000000000000B1
:104C000000000000000000000000000000000000A4
:104C100000000000000700070006000E000C000C5A
:104C20000000000000000000000000000000000084
:104C30000000000000000000E03F00000000000055
:104C40000000000000000000000000000000000064
:104C50000000000000000000000000000000000054
:104C600000000006000F000F00060000000000001A
:104C70000000000000004000C00080008001000132
:104C80000003000200060004000C000800180010D9
:104C900000300020000000000000000000000000C4
:104CA00000000000000F80198010C030C030C030FC
:104CB000C030C03080108019000F000000000000DC
:104CC000000000000000000000000000000E003E98
:104CD00000060006000600060006000600060006A4
:104CE000C03F0000000000000000000000000000C5
:104CF00000000000000F8039C010C000C00080011B
:104D000000030006000CC018C03F000000000000B7
:104D1000000000000000000000000000001F8023D1
:104D2000800180010003800FC001C000C0008031FD
:104D3000001F000000000000000000000000000054
:104D4000000000000007000F000B001B00330023D1
:104D50004063C07F000300038007000000000000E4
:104D6000000000000000000000000000803F003054
:104D700000300030003F8031C000C000C0008031F2
:104D8000001F000000000000000000000000000004
:104D9000000000008007001C001800300037803938
:104DA000C030C030C0308019000F0000000000008B
:104DB000000000000000000000000000C03FC03004
:104DC0008000800180010001000300030002000652
:104DD00000060000000000000000000000000000CD
:104DE00000000000000F8019C030C0308019000F93
:104DF0008019C030C0308019000F00000000000092
:104E0000000000000000000000000000000F8019FA
:104E1000C030C030C030C019C00EC0008001800357
:104E2000001E000000000000000000000000000064
:104E300000000000000000000006000F000F000648
:104E400000000006000F000F000600000000000038
:104E50000000000000000000000000000000000052
:104E60000006000F000F000600000000000E000EFC
:104E7000000C001C001800180000000000000000DA
:104E80000000000000000000C0000003000C003023
:104E900000400030000C0003C000000000000000D3
:104EA0000000000000000000000000000000000002
:104EB000000000000000C07F00000000C07F000074
:104EC00000000000000000000000000000000000E2
:104ED00000000000000000000030000C0003C000D3
:104EE0002000C0000003000C0030000000000000A3
:104EF000000000000000000000000000803FC03102
:104F0000C000C0008003000E000C0000000C001E5A
:104F1000000C000000000000000000000000000085
:104F200000000000000F8018C030C033C036C0360B
:104F3000C036C036E03300300018C00F000000005B
:104F4000000000000000000000000000003C000C19
:104F5000000E000A001B001B8031803FC060C06053
:104F6000E0F1000000000000000000000000000070
:104F70000000000000FF8061C060C0608061807F31
:104F8000C06060606060C06080FF000000000000E2
:104F9000000000000000000000000000600FE03989
:104FA0006030606000600060006000602030E038C9
:104FB000800F000000000000000000000000000062
:104FC0000000000000FFC061C06060606060606061
:104FD00060606060C060C06100FF00000000000011
:104FE000000000000000000000000000C07FC03092
:104FF000C03000300033003F00330030C030C030DC
:10500000C07F000000000000000000000000000061
:1050100000000000E03F6018601800188019801F31
:105020008019001800180018003C00000000000063
:10503000000000000000000000000000C01EC0735F
:10504000C060C0C000C000C0E0C3C0C0C060C071CC
:10505000001F000000000000000000000000000031
:1050600000000000E0F1C060C060C060C060C07FB0
:10507000C060C060C060C060E0F1000000000000DF
:10508000000000000000000000000000C03F00061B
:1050900000060006000600060006000600060006E0
:1050A000C03F000000000000000000000000000001
:1050B00000000000E00F800180018001800180017C
:1050C00080C180C180C100E3007E000000000000BC
:1050D000000000000000000000000000E079C03087
:1050E000803100330036003F80338031C030C03023
:1050F000E078000000000000000000000000000058
:105100000000000000FC00300030003000300030B3
:105110006030603060306030E0FF00000000000070
:10512000000000000000000000000000F0F0E0704F
:10513000E079E0796069606F606660666060606019
:10514000F0F000000000000000000000000000007F
:1051500000000000E0E3C070C070C068C06CC064B4
:10516000C066C062C061C061C0F8000000000000FD
:10517000000000000000000000000000001FC071DF
:10518000C06060C060C060C060C060C0C060C0710E
:10519000001F0000000000000000000000000000F0
:1051A00000000000807FC018601860186018C018E8
:1051B000801F001800180018007F00000000000089
:1051C000000000000000000000000000001FC0718F
:1051D000C06060C060C060C060C060C0C060C071BE
:1051E000001F0010E03F0000000000000000000071
:1051F00000000000007F8031C030C0308031003FAF
:1052000080318031C030C030E07800000000000004
:10521000000000000000000000000000803D8073DE
:10522000806100600070803FC001C000C060C0713C
:10523000806F00000000000000000000000000007F
:1052400000000000E07F60666066606660660006E1
:105250000006000600060006C03F00000000000037
:10526000000000000000000000000000E0F1C0604D
:10527000C060C060C060C060C060C060C06080319D
:10528000001F0000000000000000000000000000FF
:1052900000000000E0F1C060C06080318031001B80
:1052A000001B000A000E00040004000000000000C3
:1052B000000000000000000000000000F0F060604E
:1052C000606660666066606F606FC039C039C0300C
:1052D000C0300000000000000000000000000000DE
:1052E00000000000E0F1C0608031001B000E000EE5
:1052F000000E001B8031C060E0F1000000000000E3
:10530000000000000000000000000000E079C03054
:10531000801080190009000F000600060006000634
:10532000801F0000000000000000000000000000DE
:1053300000000000C07FC0608061006300060006BE
:10534000000CC018C030C060C07F0000000000002A
:10535000000000000000000000000000000F000C32
:10536000000C000C000C000C000C000C000C000CDD
:10537000000C000C000C000C000F000000000020CE
:105380000030001000180008000C000400060002A5
:105390000003000180018000C00040000000000008
:1053A000000000000000000000000000000F0003EB
:1053B00000030003000300030003000300030003D5
:1053C0000003000300030003000F000000000000C2
:1053D0000004001F803100000000000000000000F9
:1053E00000000000000000000000000000000000BD
:1053F00000000000000000000000000000000000AD
:10540000000000000000000000000000000000009C
:1054100000000000F0FF000000000000000000009D
:105420000030001C0003000000000000000000002D
:10543000000000000000000000000000000000006C
:10544000000000000000000000000000000000005C
:10545000801FC021C000C03EC071C060C060C0716C
:10546000E03E00000000000000000000000000001E
:1054700000000070003000308037C038603060308D
:10548000603060306030C03880770000000000007D
:10549000000000000000000000000000000000000C
:1054A000600FE018603000300030003020306018AD
:1054B000C00F00000000000000000000000000001D
:1054C0000000C001C000C000C01EC031C060C0608C
:1054D000C060C060C060C031E01E0000000000007D
:1054E00000000000000000000000000000000000BC
:1054F000801FC03060606060E07F00600060E0306E
:10550000801F0000000000000000000000000000FC
:105510000000E007000C000CC03F000C000C000C69
:10552000000C000C000C000CC03F0000000000004C
:10553000000000000000000000000000000000006B
:10554000E01EC031C060C060C060C060C060C031DB
:10555000C01EC000C0008001001F0000000000004D
:1055600000000070003000308037C039C030C030DB
:10557000C030C030C030C030E07900000000000012
:10558000000000000000000000060006000000000F
:10559000001E0006000600060006000600060006C3
:1055A000C03F0000000000000000000000000000FC
:1055B0000003000300000000803F800180018001A3
:1055C0008001800180018001800180018001000351
:1055D000003E0000000000000000007000300030BD
:1055E000E033803100330036003E00338031C0307C
:1055F000E07100000000000000000000000000005A
:105600000000003E00060006000600060006000638
:105610000006000600060006C03F00000000000073
:10562000000000000000000000000000000000007A
:10563000C0EC607760666066606660666066606643
:1056400070F70000000000000000000000000000F3
:1056500000000000000000008077C039C030C0307A
:10566000C030C030C030C030E07900000000000021
:10567000000000000000000000000000000000002A
:10568000801FC03060606060606060606060C030DB
:10569000801F00000000000000000000000000006B
:1056A00000000000000000008077C03860306030EB
:1056B000603060306030C0388037003000300030FB
:1056C000007E00000000000000000000000000005C
:1056D000E01EC031C060C060C060C060C060C0314A
:1056E000C01EC000C000C000E007000000000000B5
:1056F0000000000000000000E079201F001C0018DE
:105700000018001800180018807F0000000000003A
:105710000000000000000000000000000000000089
:10572000C01EC031C030001C800FC0016030603826
:10573000C037000000000000000000000000000072
:105740000000000000180018807F001800180018E2
:10575000001800180018601CC00F000000000000B6
:105760000000000000000000000000000000000039
:10577000C071C030C030C030C030C030C030C0395F
:10578000E01E00000000000000000000000000001B
:105790000000000000000000E079C0308010801997
:1057A00080190009000F000600060000000000003C
:1057B00000000000000000000000000000000000E9
:1057C00070E0204060666066C036C036C03980191F
:1057D0008019000000000000000000000000000030
:1057E0000000000000000000E079C0308019000FC8
:1057F0000006000F8019C030E079000000000000B2
:105800000000000000000000000000000000000098
:10581000E079C0308010801980190009000F00065F
:1058200000060004000C000C007E000000000000D8
:105830000000000000000000C03FC03080310003C5
:105840000006000CC018C030C03F0000000000007F
:10585000000000000000000000000000C001800304
:1058600000030003000300030006001C0006000301
:105870000003000300038003C001000600060006C9
:1058800000060006000600060006000600060006E8
:1058900000060006000600060006000600060006D8
:1058A000000600000000000000000000001C000EC8
:1058B00000060006000600060003C0010003000603
:1058C000000600060006000E001C0000000000009C
:1058D000801D0037000000000000000000000000F4
:1058E00000000000000000000000000000000000B8
:1058F00000000000000000000000000000000000A8
:10590000000000000000000000000006000F000F73
:105910000006000000000000000000000000000081
:1059200000000000C0FFC0CCC0CC000CE00F300C69
:10593000300C300C300C300CE03F00000000000058
:10594000000000008001000300060000E03F601836
:105950006018001800180018001800180018001827
:10596000003C0000000000000000000000000000FB
:105970000000000000000000000000000000000027
:105980000000000000060006000200040000000005
:1059900000000000000000000006000C00180000DD
:1059A00080FF806100600060006000600060006057
:1059B00000F00000000000000000000000000000F7
:1059C00000000000000000000000000000000000D7
:1059D00000000000803180318010002100000000B4
:1059E00000000000000000000000000000000000B7
:1059F00000000000000000000000000000006066E1
:105A000060660000000000000000000000000000D0
:105A10000000000F00060006E07F00060006000FF1
:105A20000006000600060006000600000000000058
:105A300000000000000000000000000F000600064B
:105A4000E07F00060006000F00060006E07F00066B
:105A50000006000F00000000000000000000000031
:105A60000000000000000000000000000000000036
:105A70000000000000000000000000000000000026
:105A8000000000000000000000000000407080D80E
:105A9000008900DA007C0008E01EB03B1051B09B8A
:105AA000E00E000000000000000000000000000008
:105AB00000000000807F003300330033E0333033D8
:105AC00030333033303330F3E0E7000000000000C3
