:020000040800F2
:1000000000000120310A0008A9090008AB09000816
:10001000AD090008AF090008B109000800000000A0
:10002000000000000000000000000000B30900080C
:10003000B509000800000000B7090008B909000868
:10004000810A0008810A0008810A0008810A000864
:10005000810A0008810A0008810A0008810A000854
:10006000810A0008810A0008810A0008810A000844
:10007000810A0008810A0008BD090008BF090008BC
:10008000810A0008810A0008810A000800000000B7
:10009000000000000000000000000000810A0008CD
:1000A000810A0008C1090008810A0008810A0008C5
:1000B000810A0008810A0008810A0008810A0008F4
:1000C000810A0008810A0008810A0008810A0008E4
:1000D000810A0008810A0008810A00080000000067
:1000E000810A0008810A0008810A00080000000057
:1000F000000000000000000000000000810A00086D
:1001000000000000810A0008810A0008810A000836
:1001100000000000000000000000000000000000DF
:10012000810A0008810A0008810A0008D109000834
:10013000810A00080000000000000000000000002C
:10014000000000000000000000000000810A00081C
:10015000810A0008810A0008810A0008810A000853
:10016000810A0008810A0008000000000000000069
:10017000000000000000000000000000000000007F
:1001800000000000810A00080000000000000000DC
:04019000810A0008D8
:1001940010B5054C237833B9044B13B10448AFF3BD
:1001A40000800123237010BD1C010020000000000A
:1001B4002049000808B5034B1BB103490348AFF3BA
:1001C400008008BD00000000200100202049000834
:1001D400034613F8012B002AFBD1181A0138704783
:1001E400054B1A6B02431A631B6B82B018400190D3
:1001F400019B02B0704700BF0038024000F00700C6
:10020400C0F10702031D042A28BF0422062B4FF065
:10021400FF3303FA02F38CBF0338002021EA030101
:1002240001FA00F0704700002B4A136823F007031B
:1002340043F0020310B51360136803F00703022BA5
:10024400FAD1264A136823F4404343F4004313606D
:10025400234B1A6842F480321A601A689103FCD561
:100264005A6820491140204A0A435A605A6822F4C5
:1002740040325A601A6842F080721A60184B1A6849
:100284009201FCD59A68164C22F0F0029A609A68A2
:1002940022F4E05242F480529A609A6822F4604256
:1002A4009A609A6822F0030242F002029A60A368FC
:1002B40003F00C03082BFAD10C4801F0D5FC0F20F5
:1002C40001F03AFA08B172B6FEE7D4F88C3023F0A4
:1002D4008073C4F88C3010BD003C024000700040B4
:1002E400003802400080BFFF192A400000BD01050C
:1002F4002DE9F04FADF2047D01F042FAFFF794FFCF
:10030400182200212CA804F097F90420FFF768FFB5
:100314008020FFF765FF0120FFF762FF0220FFF74F
:100324005FFFDFF84093DFF840A3C648C64EDFF80E
:100334003CB31C224FF400534FF480550024012792
:1003440083612CA9C9F81820CAF818504FF0020884
:10035400CDE92D742C93CDE92F4401F08FFA0C23B1
:100364002CA94846CDE92C37CDE92E84309401F0F0
:1003740085FA10232CA94846CDE92C37CDE92E84E3
:10038400309701F07BFA2CA95046CDE92C57CDE9E2
:100394002E84309701F072FA4FF470732CA95046F2
:1003A400CDE92C34A94D309701F068FA4FF4800060
:1003B400FFF716FF4FF40010FFF712FFE86821461D
:1003C400C0F30220FFF71AFF00014FF48042C0B2CD
:1003D40086F80E033260E8682146C0F30220FFF776
:1003E4000DFF00014FF40042C0B286F80F033260E3
:1003F400E868974D2146C0F30220FFF7FFFE000195
:10040400C0B24FF0006286F83B03214672602CA80C
:10041400282204F011F91822214622A804F00CF92C
:10042400DBF8442042F48052CBF84420DBF844202B
:1004340002F4805238461192119AFFF7D1FEA0229D
:10044400CDE922280322CDE9242422A90522484605
:100454002697279201F012FAAA6D7E4822F0606274
:1004640042F0C062AA65AA6D22F0C00242F04002C6
:10047400AA65AA6D22F44032AA65AA6D22F490728C
:10048400AA65AA6D22F40072AA65AA6D42F480627C
:10049400AA65AA6D22F4C05242F40062AA65AA6D4C
:1004A40022F4C04242F40052AA65EA6E22F0040229
:1004B400EA664FF48272CDE92D244FF40072CDE93F
:1004C40031242CA90A22CDE92F843592CDE9334475
:1004D4002C9401F071FA5F494A6822F010024A60D4
:1004E4002CA81422214604F0A7F8DBF84420574B2B
:1004F40042F40032CBF84420DBF8442002F400320A
:100504001292129AD8684146C0F30220FFF776FE91
:100514000001C0B24FF0007240F2E73386F81903CD
:100524003260ADF8B0302CAB40F2A31219464A4801
:100534002D94CDE92E2401F06FFA474B474E1A68EB
:1005440022F080021A60214628222CA804F074F8B4
:100554001822214622A804F06FF8DBF8402042F468
:100564008042CBF84020DBF8402002F48042404631
:100574001392139AFFF734FE0320CDE924040520D7
:10058400279022A84FF4604201465046CDE9222824
:10059400269401F073F9324A916D21F060619165FE
:1005A400916D21F0C0019165916D21F44031916507
:1005B400916D21F490719165916D21F400719165B3
:1005C400916D41F480619165916D21F4C051916503
:1005D400916D21F4C0419165D16E21F00401D16681
:1005E400116F21F060611167116F21F0C00141F0BA
:1005F40040011167116F21F440311167116F21F42B
:1006040090711167116F21F400711167116F41F43A
:1006140080611167116F21F4C0511167116F21F4CA
:10062400C0411167D2F884104FF4827021F00401A4
:10063400C2F884103022CDE92D044FF40070CDE9C6
:10064400310215E00008024000E100E000ED00E0A6
:100654000064024000300140004401400038004082
:1006640000600240000002400004024000380240E2
:100674000A2035902CA801463046CDE92F44CDE917
:1006840033442C9401F098F9726822F010027260DD
:1006940019AE14222146304603F0CEFF2022214613
:1006A4002CA803F0C9FF1822214622A803F0C4FF96
:1006B400DBF8402042EA0802CBF84020DBF8402077
:1006C40040F2E733ABF50D3B02EA080231461492DF
:1006D400ADF864305846D123149A1B9301F09CF969
:1006E400DBF8003023F08003CBF800304FF0804378
:1006F4002CA8D3F8182442F00802C3F81824602266
:10070400CDE92C246D223946CDE92F2402465846E2
:100714002E9401F0CDF94FF080433846D3F81824D5
:1007240022F00402C3F81824DBF8043023F0700329
:10073400CBF80430DBF8083023F08003CBF8083022
:10074400FFF74EFD22A801464FF0400B4846CDE985
:1007540022B8CDE92648CDE9244401F08FF801F010
:1007640089FA424650462346594602F08DFA5046CD
:1007740023460322802102F087FA5046234622466C
:100784004FF4807102F080FA3A46504623464FF403
:10079400007102F079FA654ADFF8C8A1D3683B43D7
:1007A400D36013683B4313609AE80F000DF1540CB7
:1007B4008CE80F000323CDE91B390823ADF874300E
:1007C4005B49CDF878900423ADF87C304FF01003EA
:1007D400CDE91915ADF884309CE80F000DF1240E15
:1007E400CDF880908EE80F00524B0693524B534D38
:1007F400DFF87491CDE907680593514B0493514B8D
:100804004FF4A072CDE90243F023CDE900322CA9C4
:100814001A46286800F0CEF98046286000F031FBC3
:100824002146404600F058FD0AF1100A464947485F
:10083400224603F0D7FBBAE80F0022AD0FC5BAE891
:100844000F000FC59AE8030085E8030002F068F979
:100854004146036C06469847B8F80620B8F80430B9
:100864000092756C224621463046A847B36C22A9F3
:1008740030469847F36C364930469847356D3A46CA
:10088400032321463046A847324F334D05213046D5
:1008940002F086F9B36D30469847F36D30469847B9
:1008A4000446002836D1336E30469847736E0F9055
:1008B400304698470F9A03464946022003F01FFE2C
:1008C40001220146284603F0B3FB7369024698B936
:1008D4000390D96802915B680193B3690093014660
:1008E4001E4B404600F0C6FE284603F0C9FC02F049
:1008F400F7F90028FBD0C9E70394DA6802925B6831
:100904000193B3690093164B22461146404600F00A
:10091400B1FEECE7736900220392D96802915B6827
:100924000193B36900933B46EFE700BF00440140E5
:1009340000300140351700082D1700083C01002045
:1009440009170008E1160008A4050020440100204E
:1009540004000020A7490008780300207A49000811
:1009640093490008384900087849000882B00C4BC4
:10097400002100915A6C42F480425A645A6C02F489
:1009840080420092009A01911A6C42F080521A64DB
:100994001B6C03F080530193019B02B0704700BFAE
:1009A40000380240FEE7FEE7FEE7FEE7FEE7704799
:1009B4007047704700F0FEBE70477047024B6FF0FF
:1009C40001021A6102F0B6B9004401400148032152
:1009D40000F068B8006402400B4A116810B5034681
:1009E40009B90A491160106809490A4C0344091BF2
:1009F4008B4206D903F0C6FD0C2303604FF0FF3091
:100A040010BD1360FCE700BF380100203808002047
:100A14000000012000040000034AD2F8883043F4A7
:100A24007003C2F88830704700ED00E0DFF834D07E
:100A34000D480E490E4A002302E0D458C450043332
:100A4400C4188C42F9D30B4A0B4C002301E0136009
:100A54000432A242FBD3FFF7DFFF03F099FDFFF757
:100A640047FC704700000120000000201C0100200A
:100A7400F08000081C01002038080020FEE730B593
:100A8400838F446A856B02B91B04AB61E160A36880
:100A94009A0703D5A3681B0602D430BD00BFF6E74E
:100AA40000BFF7E737B50C46324902460868496883
:100AB4006B4603C304F108036B44032C13F8080CBE
:100AC4008CBF02F10C0102F108013F2383400B604B
:100AD400294B1B68002B30D0996A8A4209D1D96A04
:100AE4008C4206D1196C39B14969B3F84400084203
:100AF40002D0D3F84C36EDE72049085D115821F0B7
:100B04000101115015182C6814F0010417D1D3F801
:100B14003C16B1B1B1F5803F23BFA1F57F414FF63B
:100B2400FF746C60696026BFFF39C3F83C16C3F8D4
:100B34003C46135843F00103135003B030BD00BFCB
:100B4400E1E7596A4A6822F002024A605A6A9168E7
:100B540009060CD493F8411621B9196C11B1B3F8F4
:100B640044308B61136823F040031360E5E700BF52
:100B7400ECE700BF704900083C010020BA490008B6
:100B8400026B10B504466AB1838E1B04936119206D
:100B940001F056F8236BA28E9A61BDE8104019202B
:100BA40001F04EB810BD20B14FF4CA62002103F029
:100BB40043BD70472DE9F84FDDF834B0BDF82890F7
:100BC400BDF82C809DF83070064692461D460C46B2
:100BD400002900F0BB804FF4CA620021204603F0D4
:100BE4002BFD9DF84830DDF844E084F84830BEE839
:100BF4000F0004F1240CACE80F00BEE80F00ACE8D1
:100C04000F00DEF80030CCF80030A36A002B2AD0A5
:100C1400E26A53498A5C995821F001019950981865
:100C24000168C90763D494F84810012961D199581F
:100C340021F4F041995099589950995821F4802100
:100C440021F00E019950416921F0800141619958C8
:100C540041F010019950995821F400719950995814
:100C640041F48061995055452B4638BF534655454C
:100C740028BF554617F0FD024DD1A580E380A4F8A6
:100C84000090A4F80280002F3DD16781A7812288BB
:100C9400A3889A4256D36288E3889A4252D3BBF11E
:100CA400000F4FD00E9B002B4CD0C4E905B30F9B13
:100CB400E361109B236213AB0FCB04F14C05277245
:100CC40085E80F00002384F84036C4F84C36C4F895
:100CD400483604F16003E365002E37D0D6F84C267D
:100CE400002A36D1C4F84866C6F84C462EE000BF48
:100CF40096E70229A1D1995821F4F04199509958C5
:100D040041F4205198E7A9EB0505A8EB0308658198
:100D1400A4F80C80BBE7012A14D1012F4FF0000284
:100D2400E580A4F800800CBFA9EB0505A8EB030837
:100D3400A380A4F8029007BF6281A581A4F80A8069
:100D4400A281A4E72046FFF72EFF00242046BDE839
:100D5400F88F94F84036013384F840361646BDE7E0
:100D6400BA490008436A1868C0F3801070472DE937
:100D7400F843466A05460C462846FFF7F3FF012868
:100D840022D02A6C1AB1B5F844301B04936133683D
:100D940023F42C433360336843F0400333602278F8
:100DA400012A19D0022A26D05ABB61782846FFF7B7
:100DB40066FE04F1030914F8028F474614F8011F74
:100DC40027B909EB0804EAE700BFD5E70122284662
:100DD400FFF755FE013FF1E704F1020914F8018F12
:100DE400474614F8011F002FEBD001222846FFF7D5
:100DF40046FE013FF5E76078A71C00F021FF3C4662
:100E0400CDE72B6C13B1B5F844209A61336823F015
:100E140040033360BDE8F8836429C36C0A4628BFE5
:100E2400642280F85A201BB3D96A4A436421B2FB76
:100E3400F1F2016DB1F5807F18D00ED8012911D0DF
:100E4400102911D01A68D20718D41A6A11431962EA
:100E54001A6842F001021A607047B1F5805FF1D15F
:100E64001A64EFE75A63EDE79A63EBE7DA63E9E7BD
:100E7400426D1AB1B0F8583009B1936170471B0440
:100E8400FBE710B50446FFF77BFE6369207A9847B9
:100E940001462046FFF76BFF94F85A102046BDE840
:100EA4001040FFF7B9BFF8B50446BDF818C0A589CE
:100EB4004089A669C718AC4408441544A9B21FFA6E
:100EC4008CF3BAB280B2B04701462046BDE8F84080
:100ED400FFF74DBF38B5456A04462046FFF742FF89
:100EE400012831D094F841362BB9206C18B1B4F8EC
:100EF40044301B04836194F8423613B9A36BA08F6A
:100F040098612B6823F42C432B6094F84800022842
:100F140002BF2B6843F400632B602B68022843F064
:100F240040032B601CD18AB9AB681B0624D494F807
:100F3400413623B9236C13B1B4F844209A612B6869
:100F440023F040032B6038BD00BFC6E731F8023BF5
:100F5400EB60AB689B0701D5013AE4E700BFF8E713
:100F640001EB42029142DFD011F8013BEB60AB6828
:100F74009807F7D400BFFAE700BFD5E7836A2DE9E5
:100F8400F341044688461546002B75D090F8483046
:100F9400012B08BF5500426A2046FFF7E3FE0128F3
:100FA40068D094F841362BB9216C19B1B4F84430A7
:100FB4001B048B6194F8423613B9A36BA18F99611A
:100FC4001368C4F83C5623F42C43136094F8483057
:100FD4002C49022B02BF136843F4006313601368A7
:100FE40043F040031360D4E90A37CE5D264908680C
:100FF4004968EE46AEE8030007F10801032F0DEB44
:10100400010788BF03F10C0017F8087C98BF03F1AF
:1010140008003F21B9400160516803EB060C41F020
:10102400020151600C32CCF80820CCF80C809A599B
:1010340022F400729A519A59B5F5803F42F48062C5
:101044009A512BBF4FF6FF72CCF80450CCF8042011
:10105400002238BFC4F83C269A5924BFA5F57F4521
:10106400FF3D42F0010228BFC4F83C569A5102B039
:10107400BDE8F08100BF8FE702B0BDE8F041FFF7A3
:1010840029BF00BFBA490008704900082DE9F34799
:10109400B0F804C0BDF82880DDF82C909DF830A08D
:1010A4008C45074614461E4625D9C388934222D947
:1010B40001EB060EE6451EDC02EB080C9C451ADC2F
:1010C40008F1FF35731E2C440B44A4B200949BB268
:1010D400FFF7E9FE08FB06F249463846BAF1000F6D
:1010E40004D002B0BDE8F047FFF748BF02B0BDE846
:1010F400F047FFF7EFBE02B0BDE8F087D20002F47C
:10110400FC6242EAD303064A02EA012190F848202D
:10111400012A43EA010301D15BBA9BB21846704726
:1011240000F8FFFFCBB2C1F30722C1F30741FFF779
:10113400E5BF0000F0B585B099420446BDF828002B
:10114400A68882BF0D4619462B46824282BF1546A9
:10115400024628468E4240F28A80E588954240F253
:1011640086809E429CBF06F1FF339BB285429CBFA2
:1011740005F1FF3080B2851A009020465E1AFFF711
:1011840092FE94F84136013506FB05552BB9226CC5
:101194001AB1B4F844301B04936194F8423613B97D
:1011A400A36BA28F9A610B992046FFF7BBFF636A7A
:1011B400A4F844061A6822F42C421A6094F84810E1
:1011C400022902BF1A6842F400621A601A6842F0E7
:1011D40040021A60A26A002A4BD0E76A01293C49FE
:1011E400CE5D3C49086849680DF1080EAEE803007D
:1011F40007F1100108BF6D00032F0DEB010788BF35
:1012040002F10C0017F8087C98BF02F108003F2196
:10121400B9400160596802EB060C41F002015960C3
:101224000C33CCF8083004F24463CCF80C309359F6
:1012340023F4007393519359B5F5803F23F48063ED
:1012440093512BBF4FF6FF73CCF80450CCF8043005
:10125400002338BFC4F83C36935924BFA5F57F4515
:10126400FF3D43F0010328BFC4F83C56935105B039
:10127400F0BD022918D17DB99A68120626D494F8D3
:10128400412622B9226C12B1B4F8441091611A6853
:1012940022F040021A60EAE7D8609A68970701D5FD
:1012A400013DE8E700BFF8E7C2B2000A002DE3D031
:1012B400DA6099688E0705D5D8609968890703D5DF
:1012C400013DF3E700BFF4E700BFF6E700BFD3E753
:1012D400BA4900087049000807B5C288838801919B
:1012E400013A92B20092013B00229BB21146FFF7F1
:1012F40021FF03B05DF804FB10B4BDF80440019471
:101304005DF8044BFFF716BFF0B51F4683888B4288
:1013140085B0044612D9C38893420FD900920B4674
:10132400FFF7C1FD39462046FFF7FCFE0122ADF868
:101334000E000DF10E012046FFF7CCFD05B0F0BD07
:101344002DE9F04F1E4685B0B142BDF838700F9BB1
:101354000C4615460DD0BA4213D1B1420ED8CDE990
:101364000E732A463346214605B0BDE8F04FFFF719
:10137400E1BEBA42F3D93D461746F0E734460E467D
:10138400EDE7A7EB0209A6EB010AB9F1000FB8BF1C
:10139400C9F10009BAF1000FB8BFCAF1000AD1457A
:1013A40004DD32462C463E460D461746B44205D966
:1013B4002A463D461746224634461646A6EB0408FE
:1013C4001FFA88F2A7EB050B0192C8F3C032BBF1F8
:1013D400000F02FA88F8B8BFCBF1000B4FEA680897
:1013E400AF428CBF01274FF0FF37A64202D205B0AF
:1013F400BDE8F08FD145CBBF2946214622462A4677
:10140400A8EB0B0803930290FFF77EFF1FFA88F105
:101414000FFA88F8B8F1000FDDE9020306DA019A41
:101424003D4402EB0108ADB20FFA88F80134A4B2CE
:10143400DBE72DE9F743DDF82C90BDF8288004465E
:101444000E461546CDE900291F46FFF779FF3346BE
:101454002A4631462046CDE90089FFF771FF3B4615
:10146400424631462046CDE90089FFF769FF3B46F5
:101474002A4639462046CDE90A8903B0BDE8F0433F
:10148400FFF75EBF2DE9F04F87B00746DDF84080D7
:10149400029198F808109DF84C00D8F8045099422D
:1014A40091466AD898F809209A4266D35B1AD9B251
:1014B40098F800305E1EF6100136F200013A01245D
:1014C40004FA02F2039298F80120714302FB0155D9
:1014D400002840F0CC8011993846CDE90432FFF75A
:1014E40021FE129982463846FFF71CFE029B059A9C
:1014F4007C6A591E049B0B4409F1FF310A4492B2E1
:10150400009202994A4683469BB23846FFF7CBFCC9
:101514003A6C1AB1B7F844301B049361BB6BBA8FB1
:101524009A61236823F040032360236823F42C4347
:10153400236097F84830022B02BF236843F400630A
:101544002360236843F04003236000239E4698F8F9
:101554000120724513DCA3689A074ED5A3681B06C5
:101564004DD4236823F0400323603B6C13B1B7F8D8
:1015740044209A6107B0BDE8F08F002198E7012E5E
:1015840009D12B783544002198F800208A4212DCD6
:101594000EF1010EDBE7022E01D12B88F2E7032EB8
:1015A40005D12B78B5F8012003EB1223EAE7042ECA
:1015B40008BF2B68E6E7039803FA01F2024214BF5E
:1015C40052465A46D4F808C01CF0020F07D097F8C8
:1015D40048C0BCF1020F04D1E2600131D4E700BF7E
:1015E400F0E7C2F30F2CD2B2E260A268900702D5F2
:1015F400C4F80CC0F1E700BFF7E700BFABE700BFDA
:10160400ACE7012E11D12C7809EB0B0235444FF0D5
:10161400000A92B298F80030534516DC0BF1010B26
:1016240098F801305B45ECDCA4E7022E01D12C884C
:10163400EAE7032E05D12C78B5F8013004EB132426
:10164400E2E7042E08BF2C68DEE7039904FA0AF3E4
:101654000B4209D0029B049203EB0A0189B2119B4D
:101664003846FFF751FE049A0AF1010AD2E7002432
:10167400A346D5E72DE9F04385B005460C9E9DF8B9
:101684003C700C46904603F1FF3919F8013F2BB921
:10169400EC81A5F8108005B0BDE8F0833278A98804
:1016A40022448A420BDD717808EB01021FFA82F8AA
:1016B40011FA82F2E9888A424FF00004E8DC0E9ABB
:1016C40002920D9A03972146CDE9006228464246CC
:1016D400FFF7D8FE317821448CB2D6E738B102281E
:1016E40009D0012809D0032814BF0020B020044BDE
:1016F400D87518467047D420F9E76420F7E700BF8F
:101704001000002030B504460648250A0471827191
:10171400140A0A0A82721A0AC5704471C1720273E9
:10172400437330BD7D000020004870478F000020C7
:10173400004870479500002038B50E4A0E4B054608
:1017440018784FF47A73B3FBF0F31068B0FBF3F03E
:1017540000F080F8044658B90F2D09D802462946EE
:101764004FF0FF3000F044F8044B20461D6038BDB4
:101774000120FCE7000000209B0000209C000020CA
:1017840008B50B4B1A6842F400721A601A6842F4E6
:1017940080621A601A6842F480721A60032000F0B2
:1017A40015F80F20FFF7C8FFFFF7E0F8002008BD89
:1017B400003C0240034A044B11681B780B4413603D
:1017C400704700BF400100209B0000200749CA6801
:1017D40022F4E0620302120403F4E063120C1343E4
:1017E40043F0BF6343F40033CB60704700ED00E087
:1017F400164B30B5DC68C4F30224C4F10705231D7D
:10180400042D28BF0425062B4FF0FF338CBF033C67
:10181400002403FA05F521EA0501A34022EA0302A4
:10182400A140002841EA0203ACBF00F16040084A2D
:101834004FEA0313B8BF00F00F00DBB2AABF00F5F4
:101844006140135480F8003330BD00BF00ED00E068
:1018540014ED00E00138B0F1807F0BD24FF0E023AB
:10186400054A5861F02182F823100020072298616C
:101874001A6170470120704700ED00E02DE9F04740
:1018840002460D6895FAA5F44FF0010EB4FA84F4FB
:1018940003264FF00F0C35FA04F001D1BDE8F087B0
:1018A4000EFA04F32B406DD04868471E012F1ED852
:1018B400D2F8088093FAA3F7B7FA87F793FAA3F953
:1018C4007F0006FA07F728EA0708B9FA89F98F684A
:1018D4004FEA490907FA09F748EA07079760576882
:1018E40027EA0308CF685F4348EA07075760D2F83E
:1018F4000C8093FAA3F7B7FA87F793FAA3F97F005A
:1019040006FA07F728EA0708B9FA89F90F694FEACE
:10191400490907FA09F748EA07070228D7601DD1E1
:1019240093FAA3F7B7FA87F7072FD1F814902BDCB3
:10193400D2F820A093FAA3F8B8FA88F893FAA3F798
:10194400B7FA87F74FEA88080CFA08F8BF002AEAC2
:10195400080809FA07F748EA07071762D2F800806F
:1019640093FAA3F7B7FA87F793FAA3F3B3FA83F3D7
:101974007F0006FA07F75B0028EA070700FA03F37B
:101984003B431360013486E7D2F824A01F0A97FA78
:10199400A7F8B8FA88F897FAA7F7B7FA87F74FEADB
:1019A40088080CFA08F8BF002AEA080809FA07F7B9
:1019B40048EA07075762D1E70246006810F0400082
:1019C400F0B527D1D1E900373B438F684D691668DC
:1019D4000C6A3B43CF683B430F693B438F692B43FE
:1019E4003B43CF6926F47F463B43234326F0BF069F
:1019F40033431360536823F0040343EA1545B4F5F5
:101A0400005F556001D18B8C1361D36923F40063AB
:101A1400D361F0BD0120F8E7234A036890420ED059
:101A2400B0F1804F0BD0A2F57C42904207D002F572
:101A34008062904203D002F58062904215D14A68D8
:101A440023F070031343184A904219D0B0F1804F29
:101A540016D0A2F57C42904212D002F580629042E8
:101A64000ED002F5806290420AD0104A904207D00C
:101A740002F58062904203D002F58062904203D165
:101A8400CA6823F44073134303608B68C3620B88F2
:101A94008362054B984204BF0B690363436943F0B7
:101AA40001034361002070470000014000400140F1
:101AB400B1F5807F30B500F0908005D801292AD097
:101AC400102958D0012030BDB1F5805FFAD1036AE6
:101AD400156823F480530362036A4468C16921F4DE
:101AE400E64141EA0521156923F4005343EA05332D
:101AF400556823F4805343EA0533504DA84208BF88
:101B04009569D26804BF24F4804444EA851444608F
:101B1400C16102642CE0036A156823F001030362C7
:101B2400036A4168846924F073042C43156923F023
:101B340002032B43556823F001032B433F4DA84276
:101B440012D1556923F0080343EA8503956823F00D
:101B5400040343EA8503956921F480712943D56917
:101B640021F4007141EA4501D26841608461426315
:101B740003620020A7E7036A156823F010030362D9
:101B8400036A4168846924F4E64444EA0524156937
:101B940023F0200343EA0513556823F0100343EAB6
:101BA4000513264DA84213D1556923F0800343EA57
:101BB4008513956823F0400343EA8513956921F45E
:101BC400806141EA8501D56921F4006141EAC501DA
:101BD400D268416084618263CAE7036A156823F4AA
:101BE40080730362036A4168C46924F073042C435C
:101BF400156923F4007343EA0523556823F48073BD
:101C040043EA05230D4DA84213D1556923F400631B
:101C140043EA8523956823F4806343EA8523956921
:101C240021F4805141EA0511D56921F4005141EABA
:101C34004511D2684160C461C26399E70000014064
:101C44004FF0E02382B01B690193411C019B18BF34
:101C540001304FF0E02308B902B070471A69D2038B
:101C640048BF00F1FF30F6E7014B1860704700BF32
:101C74000000002008B50349034802F08BFB034B26
:101C8400187008BDA4050020A0000020A8050020AD
:101C94000020704700F056B900F0E4B938B5054C9F
:101CA4004FF00055A56100F0E3F94FF40053A36130
:101CB40038BD00BF0008024038B5054C4FF0005550
:101CC400A56100F017FA4FF40053A36138BD00BFBB
:101CD4000008024000F060BA084B196821F0400186
:101CE4001960196821F0380119601A6842EAC000C5
:101CF40018601A6842F040021A60704700380040C9
:101D0400034BD8609A68D207FCD5D868C0B2704734
:101D1400003800403E4BF0B59C6D24F001049C65F6
:101D24001C6F24F001041C679C6DE6075BD41C6FD8
:101D3400E50758D44FF07C649C603F24DC60354C4C
:101D4400354F656845F0030565609E6D3E409E65B0
:101D5400DE6E26F08006DE661D6F3D401D67D3F8FB
:101D6400845025F08005C3F88450256845F040056B
:101D740025602A4C002838D1986D20F400709865AD
:101D8400986D40F480609865186F20F4C0601867FF
:101D9400DC6759661E4B2249996719665A67DA65EA
:101DA4009A6D42F001029A651A6F42F001021A67B5
:101DB4005A68940628D51A68100125D51A6F22F09E
:101DC40001021A679A6D22F001029A65104B1A6F8C
:101DD400D1071BD49A6DD20718D40E4A536823F046
:101DE40003035360F0BD00BF9EE7986D20F4C0600C
:101DF4009865186F20F400701867186F40F48060BD
:101E04001867D9675C66C5E700BFD1E700BFDEE7A6
:101E14000060024000380040E1FFFBFFB5000020F5
:101E24000C38004008B5FF20FFF76AFFFF20FFF7DA
:101E340067FFFF28FAD108BD020638B504460D46EF
:101E440007D500217720FFF7F7FF012834D804F0E5
:101E54007F041C4B4FF480529A614FF080529A6178
:101E6400FFF7E0FFFF282AD12046FFF749FF280E9D
:101E7400FFF746FFC5F30740FFF742FFC5F307200E
:101E8400FFF73EFFE8B2FFF73BFF402C15D0482C8C
:101E940014BF01208720FFF733FF4C2C02D1FF2011
:101EA400FFF72EFF0A21FF20FFF72AFF030603D5C1
:101EB400013911F0FF01F6D138BD9520EBE7FF2081
:101EC400FAE700BF0004024010B50446FF20FFF704
:101ED40017FFFF28FAD0FE280CD18AB20020214631
:101EE400FFF718FFFF20FFF70BFFFF20FFF708FFA6
:101EF400012010BD0020FCE738B50546FFF792FF2E
:101F0400FF28044619D10846FFF7FAFEFD2916D02A
:101F14004FF4007201202946FFF7FCFE2046FFF72C
:101F2400EFFE2046FFF7ECFE2046FFF7E9FE00F047
:101F34001F00431F5842584138BD0020FCE70120D0
:101F4400FAE7000073B5444E4FF48053B3610620A2
:101F5400FFF7C2FE4FF08053B3610A25FF20013D15
:101F6400FFF7CEFE15F0FF05F8D129464020FFF714
:101F740063FF012804465FD14FF4D5714820FFF771
:101F84005BFF012842D101AC25460421FF20FFF765
:101F9400B7FE013911F0FF0105F8010BF6D19DF8E8
:101FA4000630012B48D19DF80730AA2B44D14FF0BD
:101FB4008041E920FFF740FF01460028F7D17A204D
:101FC400FFF73AFF002837D10421FF20FFF798FEDE
:101FD400013911F0FF0104F8010BF6D19DF804302A
:101FE40013F0400F14BF0C2404241C4B1C4D1C7014
:101FF4004FF48051B1612B7804B303F0FE03002049
:102004002B70FFF769FE287802B070BD2946E920DD
:10201400FFF712FF022836BFE925412502240021DB
:102024002846FFF709FF0028F9D14FF4007150202A
:10203400FFF702FF0028D8D00024D6E7DB0705D439
:102044004FF08053B361FFF7EDFEB1612B7843F09D
:1020540001032B70D7E700BF00040240A90500204C
:10206400B4000020014B1878704700BFB400002072
:1020740038B50D461C46114693B31B4B1B78DA0743
:1020840030D41A4B1B781B0758BF4902012C13D1BB
:102094005120FFF7D1FE38B94FF400712846FFF7FD
:1020A40013FFB0FA80F46409114B4FF48052201EE0
:1020B4009A6118BF012038BD5220FFF7BDFE0028E9
:1020C400F2D14FF400712846FFF7FEFE18B1013C2F
:1020D40005F50075F5D100214C20FFF7ADFEE3E7CF
:1020E4000420E8E70320E6E7B4000020A905002067
:1020F4000004024070B50E4615461C46002B3FD026
:10210400224B1A78D0073DD41B7859073CD4204B76
:102114001B781A0758BF6D02012C13D12946582089
:10212400FFF78AFE50BBFE213046FFF7E5FEB0FA0A
:1021340080F46409174B4FF48052201E9A6118BF33
:10214400012070BD13F0060F03D02146D720FFF7FE
:1021540073FE29465920FFF76FFE0028EAD1FC21BF
:102164003046FFF7C9FE18B1013C06F50076F6D1FA
:10217400FD210020FFF7C0FE0028DBD10124D9E7B0
:102184000420DEE70320DCE70220DAE7B4000020C5
:10219400A9050020000402407FB5704B187810F0A8
:1021A4000104154640F0D8800E2900F2D380DFE800
:1021B40001F008155054D1D1D1D1D1D19EA2B1B4DE
:1021C400C500FFF72FFEB0F1FF0418BF0124644BD4
:1021D4004FF480529A61204604B070BD002149201A
:1021E400FFF72AFE044608B10124F0E710216846EF
:1021F400FFF76AFE0028F7D09DF800309DF808101C
:102204009B09012B9DF8093006D15A1C02EB0122CF
:1022140092B292022A60DAE79DF807209DF80A003C
:10222400920002EB91129DF80610890201F44061BC
:1022340001320A449DF805105B0001F00F0101EB27
:10224400D01103F006030B44073B02FA03F32B609F
:10225400BDE74FF400731380B9E7424B1E7816F0C4
:1022640004011CD00021CD20FFF7E6FD0028BBD1DE
:10227400FF20FFF745FD10216846FFF725FE0028E3
:10228400B2D03024FF20FFF73BFD601E10F0FF04A6
:10229400F8D19DF80A301A0910239340D7E7492052
:1022A400FFF7CAFD044600289ED110216846FFF7B7
:1022B4000BFE002898D0B2079DF80A309DF80B1049
:1022C4000AD59DF80D205B0003F07E0303EBD113C8
:1022D40092090133013AE0E7CA0002F01802C3F39D
:1022E400840302EB5112013302FB0333AFE71D4BAE
:1022F4001B7813706BE700214920FFF79DFD002830
:102304007FF472AF10212846FFF7DEFDB0FA80F4A7
:1023140064095CE700214A20EFE700217A20FFF7F7
:102324008BFD044600287FF45FAF291DFF20FFF7D3
:10233400E7FC05F8010BA942F8D148E70021CD20BC
:10234400FFF77AFD00287FF44FAFFF20FFF7D8FC9A
:102354004021D8E704243AE703243CE7B4000020F2
:1023640000040240A905002001607047C360009B7F
:102374000361C0E901127047416170478161704790
:1023840080F83D1080F83E2080F83F30704780F898
:102394003C10704790F830007047C0697047006A7D
:1023A400704738B504460D4602F070F8211800B99C
:1023B40038BD11F8013D2E2B08D00138F7E7284627
:1023C40002F050FA003818BF0120F1E70128F6D1D5
:1023D4000020EDE7F8B505460446B826A8272846A8
:1023E400FDF7F6FE631B984200D8F8BD237883F00E
:1023F40080022F2A03D8403323700134EFE703F11E
:102404002002D2B20F2A01D81033F5E7F02B01D104
:102414002770F2E7F12B08BF2670EEE72DE9F04FA5
:102424004268002AADF56D7D04461ADB8368002BF3
:1024340017DB2568C068A98802448A4211DC216937
:10244400EA880B4493420CDCA3691A7890FBF2F0FF
:102454000228089005DD5B7891FBF3F100290591D2
:1024640006DC012384F830300DF56D7DBDE8F08F76
:102474000899D4F814A04A430D92059A534307933C
:10248400534310934B1E0F9372B6BFF34F8FBFF39A
:102494006F8FE16914A801F000FF069062B6069BF5
:1024A4000BB10223DEE794F8313043B9E36A626A80
:1024B40052F823206263A26A52F82330A3634FF0D8
:1024C400010972B6BFF34F8FBFF36F8F60A914A8D1
:1024D40001F020FF62B650B99DF896313BB19DF8EA
:1024E400883113F0060FECD109F10109E9E7A2697B
:1024F400109B527893FBF9F39A42B8BF1A46059B96
:102504000B92994504DD089B033B18BF01230693F6
:102514000F9B069A9B1A099372B6BFF34F8FBFF3B2
:102524006F8F002114A801F0F5FE62B60028B8D11F
:10253400804683464FF000038DF88030BBF1000FD6
:1025440008D1D4E90D329B1A5B4540F32C810BF181
:10255400010B12E072B6BFF34F8FBFF36F8F60A908
:1025640014A801F0D7FE62B648B99DF8963133B18C
:102574009DF8883113F0060FE3D0D945DADC079BC8
:10258400434519DDA1880D9A069825894B1E9A1892
:10259400A3691B7813FB00F3DAF80C000190079889
:1025A400D31A05EB0802013D0544ADB2206800953D
:1025B4009BB292B2FEF7BEFD94F83C30012B3FF47F
:1025C40053AFA188A3690D985F781B78D4F838C0FD
:1025D4002589BDF834604A1E12FA80F2069813FB6E
:1025E40000F3DAF818000190D31A0CF101001CFB77
:1025F40007F22A4410FB07F7013D3D44ADB29BB2FC
:102604002068009592B2FEF714FF069B002B58D069
:10261400D4E90D530B9AED1A079B9B1A5D43059B56
:10262400A9EB030395FBF3F51FFA85F89DB16168E7
:10263400A06922890078314489B24B1E091ADAF85C
:1026440020000190501E404480B200909BB220684C
:1026540089B2FEF751FE6168A069A2680078BDF8EE
:102664002C70314489B24B1E091ADAF81C0001900F
:102674004244781E10FA82F080B200909BB2206827
:1026840092B289B2FEF738FE0B9B1D44079B9D4214
:1026940017DAA5696168208931442E78DAF8205068
:1026A4000195079D3A18013889B228444B1E80B21F
:1026B4004244891B00909BB2206892B289B2FEF713
:1026C4001BFE012509F1FF3600F00AFB94F83E20B9
:1026D40005FA02F2024002D0636BB34210DB94F8B5
:1026E4003D3005FA03F3034203D0636B002B00F380
:1026F400108294F83F3005FA03F30342E4D052B158
:10270400A36B059A0133934202DA4B45B8BFA36326
:10271400636B0133636394F83D20012393400342C8
:1027240007D0A36B013B48BF0023A363636B013B4A
:10273400636394F83F200123934003423FF4ECAEDB
:10274400656B002D40F04F81E36A002B00F0468159
:10275400E06901F09BFE2B46411E0029E06902DB83
:10276400002D00F03381023102F064F8E16AE06187
:102774008900606A02F05EF8E16A60628900A06A1A
:1027840002F058F8E36AA062013BE362002384F894
:10279400313072B6BFF34F8FBFF36F8F14A801F0BF
:1027A400B0FD62B670E6059A13445B457FF7CFAE81
:1027B400DAF804300C93BBF1000F70D10F9AA849DA
:1027C400A84D20A801F04AFED4E90063A268A169DB
:1027D400119308EB02031293F26D0B7848780A9276
:1027E40006F160018A424FEA430208BF06F24E3105
:1027F40013920A9AF1650E924FF0000E704500F3A1
:10280400B28085B2B06ABDF84410BDF848209BB2CE
:10281400002840F0CE8002900A98CDE9005030465E
:10282400FEF734FC20A8FFF7D5FD20A801F02EFE0A
:10283400099B1D1A9842C8BF002520AB03442A46B1
:102844001846202101F0F8FE4FF000024255626B59
:10285400DAF810301BF0010F18BFDAF814305A45BB
:1028640007D1DAF808200C929AF824200AB1DAF891
:102874001830A56960682978A26801440020CDE970
:1028840002300C9B20684244CDE9005392B220AB45
:1028940089B2FEF7EFFEA3695B78984457E60DF51D
:1028A400CB7001F0F3FD099B984260AD17D80DF58C
:1028B400CB7120A801F0E1FD9DF88831D9062FD510
:1028C400DAF80030684D0C93636B5B457FF47CAFA2
:1028D4004FF48C7260A9A6A801F086FE74E7089BE9
:1028E400DA1E069BD21A2B7AD80609D50DF5CB71C0
:1028F40020A801F0B3FD5A4920A801F0E3FDDBE76D
:102904000DF5CB700A9201F0C1FD0A9A0028EDD0B2
:10291400431E5919897D2E2900F0D2801846F5E707
:1029240052490DF5CB70FFF73CFDB0B950490DF598
:10293400CB70FFF736FD90B94E490DF5CB70FFF71C
:1029440030FD70B94C494D4D0DF5CB70FFF729FDA5
:102954004B4B002808BF1D46B6E74A4DB4E74A4D25
:10296400B2E74A4DB0E795F805C000210EFB0CFC18
:10297400BCFBF0FC8B4206DC0E99139A11440E91B9
:102984000EF1010E3AE72F7901FB07F2B2FBF3F2E5
:1029940007FB0C272A6832F8177096F84820012A9A
:1029A40001D17FBABFB20E9A22F811700131E1E76A
:1029B40000BF3046CDE911230E91FEF7D3F9DDE9CE
:1029C40011230E990028F3D1012024E7455C4354D8
:1029D400A5F12F02554255410139BEE6626A1360E2
:1029E400A26A1360D2E69DF8A032DB0652D5E669EE
:1029F400304601F04BFD05460DF2AE2001F046FDD8
:102A04002844811C304601F015FF2149E06101F0A2
:102A140059FDE0690DF2AE2101F054FDE36A606AEC
:102A2400626B40F82320D4E90A32A16B43F82210E8
:102A3400E16A4B1C0231E362890001F0FBFEE16AAA
:102A4400606201318900A06A01F0F4FE626AE16A01
:102A5400A062002342F82130E26A40F8223096E670
:102A6400C26C0008646F00084C6F0008C56C000855
:102A74001F6E0008666D0008CA6E0008746F0008B7
:102A8400546F0008446F00085C6F00086C6F000806
:102A940078490008206A08B101F09EFD0DF2AE20CD
:102AA40001F01EFD4FF480732062238672B6BFF3DB
:102AB4004F8FBFF36F8F14A801F023FC62B6D3E4E9
:102AC40001283FF413AF0DF5CB731D1828460A9265
:102AD40001F0DCFC0A9A0DF5CB71121A20A801F062
:102AE400BDFC20A801F0D2FC0646284601F0CEFC2D
:102AF400099B0A4930441A1A20A801F0CEFC20A8E8
:102B040001F0C4FC099B29461A1A20A801F0C5FC4F
:102B1400D2E6002A3FF405AEF2E500BFC26C00081D
:102B240010B56821012001F025FD0421044601208F
:102B340001F020FD04216062012001F01BFDA06270
:102B44000C4801F0CDFC0C4B23640C4B63640C4B20
:102B5400A3640C4BE3640C4B23650C4B63650C4B77
:102B6400A3650C4BE3650C4B23660C4BE061636679
:102B7400204610BDB94900086D23000871230008E0
:102B84007D2300088123000885230008932300087F
:102B940021240008992300089F230008A323000888
:102BA4002DE9F04F2DED028B8269C66808EE101AEC
:102BB400117896FBF1F687B04E4301EB410A4B00C6
:102BC40056450446059332DB5578026992FBF5F2CB
:102BD40005FB02F845452ADCA6EB0A0202EBD27299
:102BE400521092FBF1F2A8EB0501436802934910DD
:102BF400B1FBF5F18A421346B8BF0B46426D04930C
:102C04000121D0F808B090476B0003934FF00009FE
:102C1400049B994510D1636D002120469847656C4B
:102C24000299CDF8008033465A462046A84707B09B
:102C3400BDEC028BBDE8F08F02980095A8EB05026D
:102C4400A6EB0A0102EBD27201EBD171534600EB01
:102C540061010BEB62022046676CB847A26D204607
:102C6400904718EE100AFEF7EBFF059B03EB0A02F0
:102C7400039B591909F101098845A8BF0D469642DD
:102C8400A8BF9246C4E700002DE9F047DFF848905A
:102C9400DFF848A099F800400134E4B289F8004014
:102CA40004EB440407460E46DAF80000A1009046FF
:102CB4001D4601F0BFFD99F80010CAF800006FF03E
:102CC4000B020C2313FB0123C218C75082F808809F
:102CD40055725660BDE8F087AA0500200006002062
:102CE400104AD36870B523F001030F4ED3603578D2
:102CF400ADB10E4B1C785CB10D4B19464C2251F80A
:102D0400044B184601F07EFC013D00223570C2647C
:102D1400044AD36843F00103D360204670BD2C46B7
:102D2400F6E700BF00440140AC050020AA050020DE
:102D3400B0050020334AF0B5136923F00103136191
:102D4400314B1C78002C2CD0304B00211A68012503
:102D54000B46507A013140B9106806695068064242
:102D640002BF107A05FA00F003438C4202F10C0210
:102D7400EFDC274A2749002B3AD01068984237D114
:102D84000A780132D2B2012A0A700AD9224D2A786D
:102D9400A2B102220A7021490A680132072A01D825
:102DA4000A60F0BD00220A601D490A78132AF8D887
:102DB4001C4840F8223001320A70F2E71A4C2268AB
:102DC40042B9174E307813289FBF164F47F820306A
:102DD400013030700132632A01D82260E1E7012218
:102DE4002A700E4A00232360136002230B70D8E775
:102DF4001360094A00231370084A0B7013600A4ACF
:102E04001360CEE700440140AA050020000600201C
:102E140004060020AB0500200C0600200806002054
:102E2400AC050020B005002010060020034B1A1842
:102E340003EB8003107A5B685B6818471C0800206A
:102E4400064B1A5C42B901221A541A1803EB800388
:102E5400107A5B681B681847002070471C08002024
:102E640030B4054C251804EB800460688468287A23
:102E7400A44630BC604700BF1C08002030B4054C99
:102E8400251804EB80046068C468287AA44630BC22
:102E9400604700BF1C080020054B10B41C1803EB4E
:102EA4008003207A5B685DF8044B1B69184700BFF8
:102EB4001C080020006870470B0A017043700B0C5B
:102EC400090E8370C1707047024400F8011B9042E0
:102ED400FBD1704783690239023B8B4283BF43892C
:102EE400C06A01FB030000207047C2F307238A76FF
:102EF400CB760378032B01BF120C0A75120A4A75AC
:102F0400704700F10B010022D30143EA520310F889
:102F1400012B52FA83F38842DAB2F5D11046704796
:102F2400026810B552B111460B4611F8014B1F2C23
:102F34000CD93A2CF8D1511C8B4202D04FF0FF30FF
:102F440005E01278302AF9D101330360002010BD66
:102F540038B50D46044618B9092000232B6038BD46
:102F64000368002BF8D01A78002AF5D08188DA8813
:102F74009142F1D15878FFF759FF10F00100EBD1DD
:102F84002368EBE72DE9F0410025D0F800808D752A
:102F9400836906460C46002B5AD0C36A01330AD013
:102FA40001F11607D8F80C3033F81500002851D178
:102FB40025440023AB75F169A57D00234E1E1846F8
:102FC4002E2716F8012F202A00F1010026D0052A09
:102FD40008BFE522092807D104EB030C0DB98CF8CE
:102FE40016708CF80970013304EB030C8CF809207B
:102FF4009DB9A2F1410EBEF1190F0CD8082891F821
:103004000C808CBF4FF0100E4FF0080E18EA0E0F14
:103014001CBF2032D2B28CF8162001330B28D0D139
:103024002DB9E21895750A7B002A08BF00232344B2
:1030340000225A72CB7A237201F11C00FFF73AFF87
:10304400206001F11600FFF735FFE080000CA0803E
:10305400BDE8F081002101F0A1F930B10135B5F5E9
:10306400807F02D007F8010B9CE70025A0E7013818
:103074000A4411F8013B00F8013F9142F9D170472D
:103084002DE9F041066B00F1340804460123407831
:1030940032464146FFF7F2FE0546A8B9636AE26983
:1030A400E070F31A934202D2A778012F02D828467F
:1030B400BDE8F081E36960781E443246012341464D
:1030C400FFF7DCFE013FF0E70125F0E7C3780BB121
:1030D400FFF7D6BF1846704738B5036B8B420546D9
:1030E4000C4610D0FFF7F2FF60B92246687801233E
:1030F40005F13401FFF7B4FE00281CBF4FF0FF3484
:1031040001202C6338BD0020FCE70000002310B52B
:10311400C3704FF0FF3303630446FFF7DDFF03463C
:1031240018BBB4F832124AF6552291421FD194F8D2
:103134003420E92A05D0626B0F4902F0FF128A425B
:1031440017D104F16A00FFF7B5FE0C4A20F07F4066
:10315400904208D004F18600FFF7ACFE02F14C5215
:10316400904218BF0223184610BD0423FBE7032333
:10317400F9E70223F7E700BFEB0090004641540053
:103184002DE9FF4100230B600F461546FFF7C8FEEB
:10319400061EC0F213818C4B53F82640002C00F01D
:1031A4000F813C60237805F0FE056BB16078FFF772
:1031B4003DFEC10708D41DB110F0040500D00A2556
:1031C400284604B0BDE8F0810023F0B2237060709B
:1031D400FFF736FEC20700F1F5800DB14307EED4C8
:1031E40000212046FFF792FF022840F0CB806F4673
:1031F40004F5FD7304F23A213A4613F8040C10B1B5
:103204001846FFF757FE10338B4242F8040BF4D1F3
:10321400002557F8046B002E00F0AB8031462046A1
:10322400FFF774FF012800F2A580B4F83F30B3F52E
:10323400007F40F0AB80B4F84A1021B904F1580083
:10324400FFF738FE014694F84430E1615A1E012A22
:10325400A37000F29B8094F841506581002D00F02A
:1032640095806A1E2A4240F09180B4F84580A4F803
:10327400088018F00F0F40F08980B4F8470018B99F
:1032840004F15400FFF716FEB4F84270002F7DD00D
:1032940001FB03FE07EB181CF444604576D3A0EB56
:1032A4000C02AA42B2FBF5F370D34FF6F5729342C7
:1032B40070D840F6F575AB428CBF02250125023368
:1032C40037440CEB0602032DA36126626762E262B7
:1032D40062D1B4F85E2052EA080257D104F16000CA
:1032E400FFF7E8FD9B00A06203F2FF13B1EB532F3D
:1032F4004CD34FF0FF33C4E90433032D4FF0800364
:1033040023712BD1B4F86430012B27D1711C2046D2
:10331400FFF7E2FE10BBB4F8322220714AF65523BF
:103324009A421BD104F13400FFF7C4FD274B9842A5
:1033340014D104F50670FFF7BDFD03F1FF5303F547
:1033440000532033984209D104F50770FFF7B2FD0A
:10335400606104F50870FFF7ADFD20611C4A25701B
:10336400138801339BB21380E3801A4BE36000257A
:1033740026E703200135042D7FF44BAF042805D143
:1033840001251DE70428FBD0012801D90D2517E7E5
:1033940000264AE7032592E7B8F1000FF6D0022D84
:1033A4004FEA430218BFD218774418BF03F0010351
:1033B400A7620CBF134603EB520395E70B25FFE608
:1033C4000C25FDE60325FBE614060020525261415C
:1033D400180600201A06002001292DE9F0470646A8
:1033E4000C46174673D983698B4270D90378022B34
:1033F4003FD0032B50D0012B69D101EB5108416A16
:1034040001EB5821FFF768FE054638BB06F1340985
:1034140008F1010AC8F3080814F001041FBF19F8E1
:10342400083003F00F023B0103F0F00314BF134311
:10343400FBB209F80830716A0123F37001EB5A21D9
:103444003046FFF749FE054640B9CAF3080A44B1BD
:10345400C7F3071709F80A700123F3702846BDE87B
:10346400F08719F80A30C7F3032723F00F031F432B
:10347400F0E7416A01EB1421FFF72EFE0546002810
:10348400ECD1640006F1340304F4FF7418191F55D9
:10349400C7F307274770DFE7416A01EBD411FFF751
:1034A4001BFE05460028D9D1A40006F1340304F418
:1034B400FE741C442046FFF7FDFC27F0704700F023
:1034C400704047EA00012046FFF7F6FCC4E70225F6
:1034D400C4E7F8B50446FFF7F9FD0546002842D1D4
:1034E4002378032B37D12779012F34D104F1340603
:1034F40001464FF4007230465523FFF7E5FC84F88B
:103504003232AA2384F8333252234122722184F8BE
:10351400343084F83530612384F8363084F81B3233
:1035240084F8372084F8181284F8191284F81A22BF
:10353400616904F50770FFF7BFFC216904F50870A1
:10354400FFF7BAFC226A6078013222633B463146B7
:10355400FFF794FC2571002260781146FFF79CFC6C
:10356400003818BF0120F8BD03284B8B04BF8A8A9A
:1035740043EA0243184670470129F8B506460C464B
:103584004ED9836999424BD20378022B29D0032B5D
:1035940034D0012B44D101EB5105416A01EB552193
:1035A400FFF79AFD10B14FF0FF30F8BD6F1C716A40
:1035B400C5F30805354401EB5721304695F83450DE
:1035C400FFF78AFD0028EED1C7F308073E44E3075E
:1035D40096F8340045EA00204CBF0009C0F30B0004
:1035E400E3E7416A01EB1421FFF776FD0028DAD105
:1035F400640004F4FF742644B08ED6E7416A01EBFC
:10360400D411FFF769FD0028CDD1A40006F13400E0
:1036140004F4FE742044FFF74DFC20F07040C4E72E
:103624000120C2E773B50C46012C05680646114615
:103634002CD9AB69A34229D92AB14FF0FF322846CD
:10364400FFF7CAFE40B9214630680194FFF794FFA2
:103654000199044610B9002002B070BD012815D0AC
:10366400431C15D000222846FFF7B6FE0028F3D1EC
:10367400D5E90532911E8B4205D201336B612B795A
:1036840043F001032B71A242DDD8E4E70220E3E713
:103694000120E1E72DE9F041056880460F4671B944
:1036A4002E69EEB1AB69B34298BF01263446AB69CB
:1036B4000134A34217D8012E14D8002406E028466A
:1036C400FFF75AFF0128044603D801242046BDE829
:1036D400F081431C30D0AB698342F7D83E46E5E71E
:1036E4000126E3E70224D8F800002146FFF744FF4F
:1036F40030B10128E9D001301ED0B442D7D1DCE783
:103704004FF0FF3221462846FFF766FE90B957B9BD
:10371400D5E90532023A93422C6110D92B7943F052
:1037240001032B71D2E7224639462846FFF754FE9F
:103734000028EDD00128C8D14FF0FF34C6E7013B83
:103744006B61EBE7B1F5001FF8B506460C4601D3F3
:103754000220F8BDCA06FBD1826805680161CAB9B6
:103764002B78022B01D9AB6A9BB92B89B3EB541F7D
:10377400EED9AB6AB361B3697261002BE8D003EB95
:1037840054233435C4F308042C44B361F461002099
:10379400DFE71A466F897F02BC42114604D22846ED
:1037A400FFF798FBB061E6E73068FFF7E5FE431CDE
:1037B400024606D00128CBD9AB698342C8D9E41BA1
:1037C400EAE70120C5E703692DE9F04703F1200882
:1037D400836905468A4693B1B8F5001F0FD2C8F332
:1037E40008090468B9F1000F4DD1416901338361BF
:1037F40039B92389B3EB581F45D80023AB610420A2
:103804000BE06789013F17EA58273CD12046FFF7B0
:10381400B3FE0128064602D80220BDE8F087421C08
:1038240001D10120F9E7A369834226D8BAF1000F38
:10383400E3D069692846FFF72DFF0646002835D0F6
:103844000128E9D0431CECD02046FFF73FFC014699
:103854000028E6D104F134004FF40072FFF734FB82
:1038640031462046FFF736FB4FF0010A2063638997
:103874009F420FD3236BDB1B23636E6131462046CB
:10388400FFF728FBA86134344C44C5F81080EC6180
:103894000020C2E784F803A02046FFF7F1FB0028CC
:1038A400BFD1236B013301372363E0E70720B4E77B
:1038B4002DE9F04F002185B0D0F800B00446FFF7A1
:1038C40041FF0646002840F098804FF0FF3A4FF041
:1038D400FF08C4F82CA0C146A1695846FFF7FCFBB9
:1038E4000646002840F08980E5692F78002F00F013
:1038F4008880EA7AE52F02F03F03A37103D0100712
:1039040004D50F2B04D0C4F82CA050E00F2B56D1B3
:1039140094F82B30590640D47A0646D5236995F895
:103924000D80E36207F0BF076B7B43453FD16B8B90
:10393400002B3CD12E78DBF80C30009306F03F06C8
:10394400013E0D23DFF8C4905E43012219F8013BC8
:10395400EB5A7AB3FE2E2AD81846039300F03CFDA6
:10396400009B0290711C33F81600019100F034FDA5
:10397400029A82421BD1039B01991A460E46224B9E
:103984009945E3D12B785B0604D51AB1009B33F833
:10399400163063B9013F5FFA87F900212046FFF72B
:1039A40012FF0646002897D027E0B945BCD04FF057
:1039B400FF09F2E74FF6FF718B42E0D0F7E7B9F168
:1039C400000F04D12846FFF79CFA404515D094F81F
:1039D4002B6016F0010696D104F1200205F10B01CB
:1039E40015F8013B12F8010B8D42A3EB000302D042
:1039F400002BF5D087E7002B85D1304605B0BDE814
:103A0400F08F0426F9E700BF397D00082C7D0008FB
:103A14002DE9F04F90F82B5015F0A00589B004461D
:103A240040F090800668F26832F81530002B67D1B8
:103A340004F120070C22394605A8FFF718FB9DF86E
:103A44001F30DB0740F187804023DFF8408284F891
:103A54002B304FF0010A0B2205A93846D6F80C90FA
:103A6400FFF705FBBAF1050F5BD9A9F10201534633
:103A740031F8022F002A45D10DF11300072203F07B
:103A84000F0C0CF13001392988BF0CF137010F2BD1
:103A940000F8011902F1FF324FEA131143D802F181
:103AA40020036B447E2103F8141C394600239A42F8
:103AB40005D011F8010B202803F1010C35D104F1D4
:103AC4001F00072A9CBF02F12001694403F101038E
:103AD40096BF11F8141C20210132072BC154F0D9D0
:103AE4002046FFF7E5FE814678BB0AF1010ABAF1E8
:103AF400640FB0D14FF00709484609B0BDE8F08F14
:103B0400013591E7102002F0010C0CEB430313F490
:103B1400803F18BF83EA080301384FEA5202F2D10A
:103B2400A6E75346A8E70B46A9E76346BFE78046E6
:103B340001212046FFF747FE814610B3B9F1040F77
:103B4400D8D0D9E74FF00609D6E70428D4D19DF898
:103B54001F3084F82B309DF81F30D4F800A09B0749
:103B640048BF0C354FF00001204649BF0D23012505
:103B7400B5FBF3F50135FFF7E5FD81460028DDD1FE
:103B84008046A1695046FFF7A7FA81460028D5D19F
:103B9400E3691B78E52B01D0002BC8D108F101089B
:103BA4004545C5D1013D55D021692046A1EB4511BC
:103BB400FFF7C8FD814600289ED13846FFF7A1F9DA
:103BC4004FF6FF780190A1693046FFF785FA8146E8
:103BD400002891D1E369019AD6F80CE05A73E9B24E
:103BE4004FF00F024FF00D0CDA72DFF8A4A0187337
:103BF4004A1E0CFB02F29876D87684461AF8019B8A
:103C0400404518BF3EF8120003F8090003EB090B06
:103C14000CF1010C18BF01324FEA1029002808BF2B
:103C24004046BCF10D0F8BF80190E7D1404502D01E
:103C34003EF812200AB941F0400119700123F370D3
:103C440000212046FFF7BFFD814600287FF454AFD2
:103C5400013DB8D1A1693046FFF73EFA81460028FC
:103C64007FF44AAF01462022E069FFF72DF90B22C9
:103C7400E0693946FFF7FBF994F82B30E26903F069
:103C8400180313730123F37036E700BF21100100FA
:103C94002C7D00082DE9F843FF27D0F80080064664
:103CA4003C4604254FF6FF79B16911B9002D5FD068
:103CB4004FE04046FFF710FA0546002849D1F06965
:103CC4000378002B5CD0C27AE52B02F03F02B2717C
:103CD40044D02E2B42D022F0200108293ED00F2AB6
:103CE40041D1590638D503F0BF043369477BF362E9
:103CF400437BBB4232D1428B82BB0378D8F80C5051
:103D0400DFF880C023F04003013B0D214B434FF00B
:103D1400010E1CF8011B415ABEF1000F20D0FE2BEE
:103D24001CD825F813108E46013301320D2AF0D128
:103D34000278520604D5FE2B10D8002225F8132051
:103D4400013CE4B200213046FFF73DFD0546002862
:103D5400AAD00023B3610CE0A342C9D0FF24F1E749
:103D64004945E2D0FAE73CB9FFF7CBF8B84203D1B2
:103D740000252846BDE8F8834FF0FF33F362F8E7E7
:103D84000425E6E72C7D00082DE9F74FD0F800B0B4
:103D94000646894611F8013B2F2BFAD05C2BF8D04C
:103DA4000021B16099F800301F2B00F2AF8080230E
:103DB400304686F82B3003B0BDE8F04FFFF7C2BCA5
:103DC4000134B7E0B4F5807F00930CD0012100F0FA
:103DD400E5FA40B17F28009B07D87F4911F8012BF1
:103DE4001AB19042FAD106204DE028F8020F274676
:103DF40095E035F81730202B02D02E2B40F0AA8006
:103E0400013FA4E00131B1E0434505D2BA4249D1B2
:103E1400B8F10B0F3FD102E0B8F10B0F36D144F0EB
:103E240003044FF00B0896F82030E52B04BF05235C
:103E340086F82030B8F1080F04BFAD00EDB205F0EC
:103E44000C030C2B03D005F00302032A01D144F028
:103E54000204A10709D405F00305012D08BF44F0AD
:103E64001004042B08BF44F0080486F82B403046A5
:103E7400FFF71EFD96F82B30C0B3042803D113F0CE
:103E8400040F08BF052003B0BDE8F08FBA4202D08A
:103E940044F00304C7D8AD00EDB23A464FF00B0826
:103EA400082388E07F280ED90021CDE9002300F003
:103EB40075FA44F00204DDE9002360B1474908447F
:103EC40010F8800C38B1DFF818C11CF8011B002968
:103ED40075D08142F9D144F003045F20F118013315
:103EE40081F8200067E045F00205F7E75A07CAD4D5
:103EF400B379DB0661D531699BF800000BF134031B
:103F0400C1F308011944FFF72FFBB0603368D3F8FD
:103F14000CA0AAF1020509F1FF33A846002713F803
:103F2400010F1F2807F101040CD92F2802D05C28A7
:103F34007FF448AF19F804302F2B3FF441AF5C2BCA
:103F44003FF43EAF2028A14434BF04240024002FB2
:103F54007FF44FAF00232AF81730002F3FF443AF0C
:103F6400202170180B22FEF7AFFF19463AF81130E2
:103F7400202B3FF447AF2E2B3FF444AF09B144F05C
:103F8400030435F817302E2B01D0013FF9D100235B
:103F94004FF008081D463AF811004A1C00283FF467
:103FA40042AF202805D02E287FF42EAFBA423FF42A
:103FB4002FAF44F003041146EDE7052063E7A0F1B9
:103FC400410119298FD9A0F1610119299EBF203817
:103FD40045F0010580B281E79C7C0008AC7C0008B8
:103FE400A57C00081FB5CDE9001003A81446039171
:103FF400FEF796FF031E15DB0C4A52F8231009B195
:1040040000200870019808B10021017042F82300D3
:1040140030B1012C08D1002201A96846FFF7B0F89D
:1040240004B010BD0B20FBE70020F9E714060020C4
:104034002DE9F04190B0174601910446002800F0A4
:10404400D48002F03F06324603A901A8FFF798F88E
:10405400054600284FD1039B0199049304A8FFF758
:1040640093FE20B99DF93B30002BB8BF062017F012
:104074001C0F00F09A80002844D004283BD104A8E7
:10408400FFF7C6FC002836D146F00806FDF700FE0F
:10409400014600900B980E30FEF70EFF0B98009926
:1040A4001630FEF709FF0B9BDDF80C802022DA7234
:1040B4000B9998F80000FFF757FA0022074640468C
:1040C400FEF713FF0B9B00221A775A779A77DA7759
:1040D400039B0121D970F7B1394604A8D3F8308085
:1040E400FFF7A0FA38B903984146FEF7F5FF039BA2
:1040F400013F1F6178B1002323600546284610B0B4
:10410400BDE8F0819DF8163013F0110F57D17807F0
:1041140065D43907BAD4039F31073B6B0B992362EB
:104124006162387848BF46F04006FFF71DFAA06088
:1041340001F11C00FEF7BEFE0021FB88276004F19C
:104144002C07E0604FF40072A162A38026746174AE
:10415400E16161613846FEF7B7FEB206CED5D4F808
:104164000C80B8F1000FC9D0039BA1685E89C4F824
:1041740014807602464524D30020A1610028BAD1D8
:10418400C8F30803002BB9D0039E3046FEF7A2FE05
:1041940048B300EB5822E261707801233946FEF7F8
:1041A4005FFE0028AAD00120A5E70028A3D19DF82E
:1041B4001630DA0615D4BF07ADD5D807ABD507201E
:1041C40099E72068FFF7D8F901280146A8EB06080B
:1041D40003D9431CCED10120CFE70220CDE708202C
:1041E40089E7042087E7022085E7092586E7F7B5F4
:1041F40001A90546FEF7ACFE044600283BD12B7C02
:1042040013F0400437D01B060CD50198EA694078B6
:10421400012305F12C01FEF731FE78BB2B7C03F062
:104224007F032B74FDF734FD296A07460198FEF7D6
:1042340053FF0446F8B96E6AF37A43F02003F3722D
:10424400AA6828683146FEF750FEE96806F11C00AA
:10425400FEF732FE394606F11600FEF72DFE0198F0
:10426400B4740123F474C370FFF733F92B7C23F087
:10427400400304462B74204603B0F0BD0124FAE742
:1042840013B50446FFF7B3FF28B901A92046FEF78A
:104294005FFE00B9206002B010BD1FB50446019155
:1042A40050B3002203A901A8FEF76AFF70B9039B6B
:1042B400019923602046FFF767FDF8B994F92B3084
:1042C400002B0CDBA379DB0603D405200023236039
:1042D40010E0039BE1691878FFF746F9A060039B9F
:1042E400DB88A38000212046FFF72CFA0428ECD0B9
:1042F4000028EBD104B010BD0920FBE70428E4D06A
:10430400E4E713B501A90446FEF722FE00B92060D4
:1043140002B010BD73B50D4601A90446FEF718FEA0
:1043240020B92DB901462046FFF70CFA02B070BD42
:104334002046FFF7AFFC10F0FB06F7D129462046D4
:10434400FEF720FE31462046FFF73DFA042808BF59
:104354000020EBE730B50E4B5C7A054604F0FF0015
:10436400A4B95C7A18555C7A03EB840465605C7AC2
:104374001C4422725A7A541CE4B25C723A233032DE
:104384004B702F230A708B70C87030BD0120FCE77E
:104394001C0800200022FFF7DDBF00007F2810B5B5
:1043A40006D931B1FF2812D80A4B803833F81000EF
:1043B40010BD084A32F8024B84428BB203D001315B
:1043C4008029F7D10B4603F18000C0B2F0E700204A
:1043D400EEE700BF3A7D000870B51E4B1E4AB0F5EB
:1043E400805F28BF1346191D31F8043C0A46ABB15F
:1043F400984213D331F8024C250AE6B253FA84F4F6
:10440400A04221DA082D09D8DFE805F005090F11CB
:10441400131517191B00C01A31F8100070BDC31A08
:1044240003F00103C01A80B2F8E71038FBE7203824
:10443400F9E73038F7E71A38F5E70830F3E750388A
:10444400F1E7A0F5E350EEE70431002DCCD102EB07
:104454004603C8E73A7E00082C800008013902446C
:10446400131A002B02DC00230370704711F8013F7C
:10447400002BF8D000F8013BF2E7013911F8013FB5
:104484000BB90370704700F8013BF7E703460020BF
:104494001A5C02B970470130FAE738B5044615468C
:1044A400FFF7F4FF2044013905442B1A002B02DCEA
:1044B4000023037038BD11F8013F002BF8D000F839
:1044C400013BF2E710B50446FFF7E0FF0139204451
:1044D40011F8013F0BB9037010BD00F8013BF7E779
:1044E40010B50446FFF7D2FF0121084400F042F85A
:1044F400024610B12146FFF7C0FF104610BD0EB4AE
:10450400F3B507AE044656F8047B01960146002530
:1045140069B90121681800F02DF8054608B1019623
:10452400ACB9284602B0BDE8F04003B07047019B27
:104534001A1D18680192FFF7A9FF30B1012905443B
:1045440003D03846FFF7A2FF05440139E0E7019B99
:1045540019681A1D08460192FFF798FF40B12846D2
:10456400FFF7B0FF012C03D039462846FFF7AAFF16
:10457400013CD5E7024B0A460146186800F064B8CE
:10458400B8000020014B1868704700BFB800002035
:1045940070B50D4D0D4C641BA4100026A64209D124
:1045A4000B4D0C4C00F0BAF9641BA4100026A64273
:1045B40005D170BD55F8043B98470136EEE755F830
:1045C400043B98470136F2E7E8800008E8800008D9
:1045D400E8800008EC800008024B0146186800F0EF
:1045E40049B800BFB80000200A44914200F1FF33EB
:1045F40000D1704710B511F8014B03F8014F9142F7
:10460400F9D110BD884210B501EB020402D98442ED
:10461400234607D8431EA14208D011F8012B03F802
:10462400012FF8E7024401468A4200D110BD13F875
:10463400014D02F8014DF7E702440346934200D1CD
:10464400704703F8011BF9E737B5A1FB02244CB905
:104654001146019200F07AF8019A054630B92846CD
:1046640003B030BD0C2202600025F8E72146FFF7B5
:10467400E3FFF4E737B5002944D051F8043C019036
:10468400002BA1F10404B8BFE41800F001F91E4A9C
:104694000198136833B96360146003B0BDE8304017
:1046A40000F0FCB8A34208D9256861198B4201BF08
:1046B40019685B6849192160EDE71A465B680BB11C
:1046C400A342FAD911685518A5420BD12468214494
:1046D4005418A3421160E0D11C685B685360214404
:1046E4001160DAE702D90C230360D6E72568611963
:1046F4008B4204BF19685B68636004BF4919216079
:104704005460CAE703B030BD2808002070B50E4ECF
:104714000C463168054611B900F094F83060214622
:10472400284600F08FF8431C0AD0C41C24F003046C
:10473400A04207D0211A284600F084F8013001D1A4
:104744004FF0FF34204670BD2C0800202DE9F041C5
:10475400CD1C25F0030508350C2D38BF0C25002D84
:10476400074601DBA94205D90C233B6000263046ED
:10477400BDE8F0812E4E00F08BF833681C4634BB44
:1047840029463846FFF7C2FF431C04464DD134681E
:104794002646002E40D123683146384604EB0308F0
:1047A40000F050F880453AD1216803356D1A25F0A0
:1047B400030508350C2D38BF0C2529463846FFF76C
:1047C400A5FF01302BD023682B4423600EE0226820
:1047D400521B1ED40B2A16D96119A342256018BF97
:1047E4005960636808BF316062514B60384604F118
:1047F4000B0600F053F826F00706231DF21AB6D074
:104804009B1BA350B3E76268A3420CBF32605A609B
:10481400ECE723466468B2E734467668B9E70C23CC
:104824003B60384600F03AF8A1E72560DEE700BFB8
:1048340028080020024B0A460146186800F034B8E4
:10484400B800002038B5064D0023044608462B6006
:10485400FCF7C2F8431C02D12B6803B1236038BDB6
:10486400300800200A7870B56AB970BD9A4209D13F
:104874000C46054614F8013F002BF6D015F8016FDD
:104884009E42F7D001300378002BEFD11846ECE7B5
:10489400014800F038B800BF34080020014800F097
:1048A40033B800BF340800202DE9F0418046144697
:1048B4000E4621B9BDE8F0411146FFF747BF2AB9BA
:1048C400FFF7D8FE25462846BDE8F08100F01DF824
:1048D4008442074602D8B4EB500F12D82146404612
:1048E400FFF734FF05460028EDD0BC42224631468E
:1048F40028BF3A46FFF778FE31464046FFF7BAFE36
:10490400E1E73546DFE77047704751F8043C181F6C
:10491400002BBCBF0B58C01870470000F8B500BF8F
:10492400F8BC08BC9E467047F8B500BFF8BC08BC8C
:044934009E467047E4
:1049380000040040010000000000000000003200F8
:10494800000000000000000000000000FFFFFF0062
:10495800FFFFFF00F5F5F50000000000DBDBDB00E2
:10496800F5F5F50000000000000610160006101608
:104978002F0046696C65206F70656E6564207375DD
:104988006363657366756C6C79210046696C652094
:104998006F70656E696E67206572726F722100456F
:1049A80072726F722046696C654D616E61676572DF
:1049B8002100102840587088A0B8000000000000AE
:1049C80000000000000000000000000000000000DF
:1049D80000000000000000000000000000000000CF
:1049E80000000000000000000000000000060006B3
:1049F8000006000600060006000600000006000F7C
:104A08000006000000000000000000000000000098
:104A18000000000080198019801980198019000091
:104A2800000000000000000000000000000000007E
:104A380000000000000000000000000060066006A2
:104A4800C00CC00CF07F80198019E0FF00330033E0
:104A58000066006600000000000000000000000082
:104A68000000000000060006C01EC031C030003043
:104A7800000FC000C030C0388037000600060006AE
:104A88000000000000000000000000000038006C7A
:104A98000044C06C00390006C0096033200260037E
:104AA800C00100000000000000000000000000003D
:104AB80000000000001F8031003000300018C03CAA
:104AC800C06680638061C073603E00000000000023
:104AD80000000000000000000000000000060006C2
:104AE80000060006000600000000000000000000AC
:104AF80000000000000000000000000000000000AE
:104B0800000000000001000300060006000C000C75
:104B1800000C000C000C000C000C00060006000342
:104B28000001000000000000000000000008000C68
:104B3800000600060003000300030003000300034F
:104B4800000300060006000C00080000000000003A
:104B58000000000000060006C036801F000F801904
:104B680080190000000000000000000000000000A4
:104B7800000000000000000000000000000000002D
:104B88000004000400040004C07F000400040004C2
:104B98000004000000000000000000000000000009
:104BA80000000000000000000000000000000000FD
:104BB80000000000000700070006000E000C000CB3
:104BC80000000000000000000000000000000000DD
:104BD8000000000000000000E03F000000000000AE
:104BE80000000000000000000000000000000000BD
:104BF80000000000000000000000000000000000AD
:104C080000000006000F000F000600000000000072
:104C18000000000000004000C0008000800100018A
:104C28000003000200060004000C00080018001031
:104C3800003000200000000000000000000000001C
:104C480000000000000F80198010C030C030C03054
:104C5800C030C03080108019000F00000000000034
:104C6800000000000000000000000000000E003EF0
:104C780000060006000600060006000600060006FC
:104C8800C03F00000000000000000000000000001D
:104C980000000000000F8039C010C000C000800173
:104CA80000030006000CC018C03F00000000000010
:104CB800000000000000000000000000001F80232A
:104CC800800180010003800FC001C000C000803156
:104CD800001F0000000000000000000000000000AD
:104CE800000000000007000F000B001B003300232A
:104CF8004063C07F0003000380070000000000003D
:104D0800000000000000000000000000803F0030AC
:104D180000300030003F8031C000C000C00080314A
:104D2800001F00000000000000000000000000005C
:104D3800000000008007001C001800300037803990
:104D4800C030C030C0308019000F000000000000E3
:104D5800000000000000000000000000C03FC0305C
:104D680080008001800100010003000300020006AA
:104D78000006000000000000000000000000000025
:104D880000000000000F8019C030C0308019000FEB
:104D98008019C030C0308019000F000000000000EA
:104DA800000000000000000000000000000F801953
:104DB800C030C030C030C019C00EC00080018003B0
:104DC800001E0000000000000000000000000000BD
:104DD80000000000000000000006000F000F0006A1
:104DE80000000006000F000F000600000000000091
:104DF80000000000000000000000000000000000AB
:104E08000006000F000F000600000000000E000E54
:104E1800000C001C00180018000000000000000032
:104E28000000000000000000C0000003000C00307B
:104E380000400030000C0003C0000000000000002B
:104E4800000000000000000000000000000000005A
:104E5800000000000000C07F00000000C07F0000CC
:104E6800000000000000000000000000000000003A
:104E780000000000000000000030000C0003C0002B
:104E88002000C0000003000C0030000000000000FB
:104E9800000000000000000000000000803FC0315A
:104EA800C000C0008003000E000C0000000C001EB3
:104EB800000C0000000000000000000000000000DE
:104EC80000000000000F8018C030C033C036C03664
:104ED800C036C036E03300300018C00F00000000B4
:104EE800000000000000000000000000003C000C72
:104EF800000E000A001B001B8031803FC060C060AC
:104F0800E0F10000000000000000000000000000C8
:104F18000000000000FF8061C060C0608061807F89
:104F2800C06060606060C06080FF0000000000003A
:104F3800000000000000000000000000600FE039E1
:104F48006030606000600060006000602030E03821
:104F5800800F0000000000000000000000000000BA
:104F68000000000000FFC061C060606060606060B9
:104F780060606060C060C06100FF00000000000069
:104F8800000000000000000000000000C07FC030EA
:104F9800C03000300033003F00330030C030C03034
:104FA800C07F0000000000000000000000000000BA
:104FB80000000000E03F6018601800188019801F8A
:104FC8008019001800180018003C000000000000BC
:104FD800000000000000000000000000C01EC073B8
:104FE800C060C0C000C000C0E0C3C0C0C060C07125
:104FF800001F00000000000000000000000000008A
:1050080000000000E0F1C060C060C060C060C07F08
:10501800C060C060C060C060E0F100000000000037
:10502800000000000000000000000000C03F000673
:105038000006000600060006000600060006000638
:10504800C03F000000000000000000000000000059
:1050580000000000E00F80018001800180018001D4
:1050680080C180C180C100E3007E00000000000014
:10507800000000000000000000000000E079C030DF
:10508800803100330036003F80338031C030C0307B
:10509800E0780000000000000000000000000000B0
:1050A8000000000000FC003000300030003000300C
:1050B8006030603060306030E0FF000000000000C9
:1050C800000000000000000000000000F0F0E070A8
:1050D800E079E0796069606F606660666060606072
:1050E800F0F00000000000000000000000000000D8
:1050F80000000000E0E3C070C070C068C06CC0640D
:10510800C066C062C061C061C0F800000000000055
:10511800000000000000000000000000001FC07137
:10512800C06060C060C060C060C060C0C060C07166
:10513800001F000000000000000000000000000048
:1051480000000000807FC018601860186018C01840
:10515800801F001800180018007F000000000000E1
:10516800000000000000000000000000001FC071E7
:10517800C06060C060C060C060C060C0C060C07116
:10518800001F0010E03F00000000000000000000C9
:1051980000000000007F8031C030C0308031003F07
:1051A80080318031C030C030E0780000000000005D
:1051B800000000000000000000000000803D807337
:1051C800806100600070803FC001C000C060C07195
:1051D800806F0000000000000000000000000000D8
:1051E80000000000E07F606660666066606600063A
:1051F8000006000600060006C03F00000000000090
:10520800000000000000000000000000E0F1C060A5
:10521800C060C060C060C060C060C060C0608031F5
:10522800001F000000000000000000000000000057
:1052380000000000E0F1C060C06080318031001BD8
:10524800001B000A000E000400040000000000001B
:10525800000000000000000000000000F0F06060A6
:10526800606660666066606F606FC039C039C03064
:10527800C030000000000000000000000000000036
:1052880000000000E0F1C0608031001B000E000E3D
:10529800000E001B8031C060E0F10000000000003B
:1052A800000000000000000000000000E079C030AD
:1052B800801080190009000F00060006000600068D
:1052C800801F000000000000000000000000000037
:1052D80000000000C07FC060806100630006000617
:1052E800000CC018C030C060C07F00000000000083
:1052F800000000000000000000000000000F000C8B
:10530800000C000C000C000C000C000C000C000C35
:10531800000C000C000C000C000F00000000002026
:105328000030001000180008000C000400060002FD
:105338000003000180018000C00040000000000060
:10534800000000000000000000000000000F000343
:10535800000300030003000300030003000300032D
:105368000003000300030003000F0000000000001A
:105378000004001F80310000000000000000000051
:105388000000000000000000000000000000000015
:105398000000000000000000000000000000000005
:1053A80000000000000000000000000000000000F5
:1053B80000000000F0FF00000000000000000000F6
:1053C8000030001C00030000000000000000000086
:1053D80000000000000000000000000000000000C5
:1053E80000000000000000000000000000000000B5
:1053F800801FC021C000C03EC071C060C060C071C5
:10540800E03E000000000000000000000000000076
:1054180000000070003000308037C03860306030E5
:10542800603060306030C0388077000000000000D5
:105438000000000000000000000000000000000064
:10544800600FE01860300030003000302030601805
:10545800C00F000000000000000000000000000075
:105468000000C001C000C000C01EC031C060C060E4
:10547800C060C060C060C031E01E000000000000D5
:105488000000000000000000000000000000000014
:10549800801FC03060606060E07F00600060E030C6
:1054A800801F000000000000000000000000000055
:1054B8000000E007000C000CC03F000C000C000CC2
:1054C800000C000C000C000CC03F000000000000A5
:1054D80000000000000000000000000000000000C4
:1054E800E01EC031C060C060C060C060C060C03134
:1054F800C01EC000C0008001001F000000000000A6
:1055080000000070003000308037C039C030C03033
:10551800C030C030C030C030E0790000000000006A
:105528000000000000000000000600060000000067
:10553800001E00060006000600060006000600061B
:10554800C03F000000000000000000000000000054
:105558000003000300000000803F800180018001FB
:1055680080018001800180018001800180010003A9
:10557800003E000000000000000000700030003015
:10558800E033803100330036003E00338031C030D4
:10559800E0710000000000000000000000000000B2
:1055A8000000003E00060006000600060006000691
:1055B8000006000600060006C03F000000000000CC
:1055C80000000000000000000000000000000000D3
:1055D800C0EC60776066606660666066606660669C
:1055E80070F700000000000000000000000000004C
:1055F80000000000000000008077C039C030C030D3
:10560800C030C030C030C030E07900000000000079
:105618000000000000000000000000000000000082
:10562800801FC03060606060606060606060C03033
:10563800801F0000000000000000000000000000C3
:1056480000000000000000008077C0386030603043
:10565800603060306030C038803700300030003053
:10566800007E0000000000000000000000000000B4
:10567800E01EC031C060C060C060C060C060C031A2
:10568800C01EC000C000C000E0070000000000000D
:105698000000000000000000E079201F001C001836
:1056A8000018001800180018807F00000000000093
:1056B80000000000000000000000000000000000E2
:1056C800C01EC031C030001C800FC001603060387F
:1056D800C0370000000000000000000000000000CB
:1056E8000000000000180018807F0018001800183B
:1056F800001800180018601CC00F0000000000000F
:105708000000000000000000000000000000000091
:10571800C071C030C030C030C030C030C030C039B7
:10572800E01E000000000000000000000000000073
:105738000000000000000000E079C03080108019EF
:1057480080190009000F0006000600000000000094
:105758000000000000000000000000000000000041
:1057680070E0204060666066C036C036C039801977
:105778008019000000000000000000000000000088
:105788000000000000000000E079C0308019000F20
:105798000006000F8019C030E0790000000000000A
:1057A80000000000000000000000000000000000F1
:1057B800E079C0308010801980190009000F0006B8
:1057C80000060004000C000C007E00000000000031
:1057D8000000000000000000C03FC030803100031E
:1057E8000006000CC018C030C03F000000000000D8
:1057F800000000000000000000000000C00180035D
:1058080000030003000300030006001C0006000359
:105818000003000300038003C00100060006000621
:105828000006000600060006000600060006000640
:105838000006000600060006000600060006000630
:10584800000600000000000000000000001C000E20
:1058580000060006000600060003C001000300065B
:10586800000600060006000E001C000000000000F4
:10587800801D00370000000000000000000000004C
:105888000000000000000000000000000000000010
:105898000000000000000000000000000000000000
:1058A800000000000000000000000006000F000FCC
:1058B80000060000000000000000000000000000DA
:1058C80000000000C0FFC0CCC0CC000CE00F300CC2
:1058D800300C300C300C300CE03F000000000000B1
:1058E800000000008001000300060000E03F60188F
:1058F8006018001800180018001800180018001880
:10590800003C000000000000000000000000000053
:10591800000000000000000000000000000000007F
:10592800000000000006000600020004000000005D
:1059380000000000000000000006000C0018000035
:1059480080FF8061006000600060006000600060AF
:1059580000F000000000000000000000000000004F
:10596800000000000000000000000000000000002F
:10597800000000008031803180100021000000000C
:10598800000000000000000000000000000000000F
:105998000000000000000000000000000000606639
:1059A8006066000000000000000000000000000029
:1059B8000000000F00060006E07F00060006000F4A
:1059C80000060006000600060006000000000000B1
:1059D80000000000000000000000000F00060006A4
:1059E800E07F00060006000F00060006E07F0006C4
:1059F8000006000F0000000000000000000000008A
:105A0800000000000000000000000000000000008E
:105A1800000000000000000000000000000000007E
:105A2800000000000000000000000000407080D866
:105A3800008900DA007C0008E01EB03B1051B09BE2
:105A4800E00E000000000000000000000000000060
:105A580000000000807F003300330033E033303330
:105A680030333033303330F3E0E70000000000001B
:105A7800000000000000000000000000000000001E
:105A8800000000020006000C000C000C00060002DA
:105A980000000000000000000000000000000000FE
:105AA8000000000080F7006300630063E063307F5C
:105AB8003063306330633063E0F7000000000000BB
:105AC800000000008001000300060000E079C030FB
